:020000040800F2
:10000000300A0020890100088718000865160008DA
:100010008518000891020008451D00080000000036
:10002000000000000000000000000000651900084A
:1000300093020008000000008918000867190008F2
:10004000A3010008A3010008A3010008A301000800
:10005000A3010008A3010008A3010008A3010008F0
:10006000A3010008A3010008A3010008A3010008E0
:10007000A3010008A3010008A3010008A3010008D0
:10008000A3010008A3010008A3010008A3010008C0
:10009000A3010008A3010008A3010008A3010008B0
:1000A000A3010008A3010008A3010008A3010008A0
:1000B000CD190008A3010008A3010008A30100084E
:1000C000A3010008A3010008A3010008A301000880
:1000D000A3010008391D0008A3010008A3010008BE
:1000E000A3010008A3010008A301000800F002F822
:1000F00000F03AF80AA090E8000C82448344AAF188
:100100000107DA4501D100F02FF8AFF2090EBAE885
:100110000F0013F0010F18BFFB1A43F0010318473B
:100120004426000064260000103A24BF78C878C135
:10013000FAD8520724BF30C830C144BF04680C60ED
:10014000704700000023002400250026103A28BF35
:1001500078C1FBD8520728BF30C148BF0B60704739
:100160001FB51FBD10B510BD00F05CF81146FFF7BC
:10017000F7FF01F07DFE00F07AF803B4FFF7F2FF1D
:1001800003BC00F07FF80000094880470948004799
:10019000FEE7FEE7FEE7FEE7FEE7FEE7FEE7FEE737
:1001A000FEE7FEE704480549054A064B7047000094
:1001B000C9190008ED00000830040020300A0020B2
:1001C00030060020300600204FF0000200B5134634
:1001D00094469646203922BFA0E80C50A0E80C5067
:1001E000B1F12001BFF4F7AF090728BFA0E80C5018
:1001F00048BF0CC05DF804EB890028BF40F8042B11
:1002000008BF704748BF20F8022B11F0804F18BF7D
:1002100000F8012B704770477047704700487047DF
:10022000D00300207546FFF7F9FFAE46050069468A
:10023000534620F00700854618B020B5FFF7B2FFFF
:10024000BDE820404FF000064FF000074FF00008D7
:100250004FF0000B21F00701AC46ACE8C009ACE858
:10026000C009ACE8C009ACE8C0098D46704710B5BC
:100270000446AFF300802046BDE81040FFF77DBF85
:100280007047000001491820ABBEFEE726000200BF
:10029000FEE7704772B6FEE710B590F82110002215
:1002A000022905D00421816380F82020012010BD9F
:1002B00001680B6823F00E030B6001680B6823F0E4
:1002C00001030B6090F84030C46B012101FA03F385
:1002D000636080F8211080F82020104610BD0000D7
:1002E00010B590F821100024022903D00421816365
:1002F00001243DE001680A6822F00E020A600168EC
:100300000A6822F001020A601A4A0168914201D18A
:10031000012121E0174A1432914201D110211BE042
:10032000144A2832914201D1891515E0114A3C3214
:10033000914201D189140FE00E4A5032914202D10C
:100340004FF4803108E00B4A6432914202D14FF4FD
:10035000801101E04FF08071064A083A5160012196
:1003600080F82110002180F82010416B01B18847EE
:10037000204610BD0800024070B5044600F004F9A4
:100380000546601C02D004480078044400F0FCF8E4
:10039000401BA042FAD370BD080000202DE9F84FA1
:1003A000DFF8B8910024A9F1040B23460F2709F1C7
:1003B000040AABF1040EC9E00125A5402A40AA4277
:1003C0007DD1674ED1F804C0ACEB0608B44532D0FD
:1003D00014DCBCF1030F3AD009DCBCF1000F2AD0C9
:1003E000BCF1010F1CD0BCF1020F31D11DE0BCF1FA
:1003F000110F17D0BCF1120F2AD119E0B8F5881FE0
:1004000019D006DCB8F5803F15D0B8F5801F1FD194
:1004100011E0B8F5001F0ED0B8F5041F18D10AE09E
:10042000CB6815E0CB681B1D12E0CB6808330FE0EA
:10043000CB680C330CE08B682BB1012B4FF0080319
:1004400003D0456104E0042302E0056100E00023DD
:10045000FF2A01D8064601E000F104064FEA8405B0
:1004600001D9A5F12005D6F8008007FA05FC28EA95
:100470000C0803FA05F548EA0508C6F800804D683F
:10048000ED0062D5374DAE6946F00106AE61AD694B
:1004900024F0030605F001050095334D06EB050C2D
:1004A000DCF80850A607360F07FA06F825EA080513
:1004B000DFF8B880404503D14FF0000817E044E072
:1004C000DFF8AC80404502D14FF001080FE0DFF8C3
:1004D000A480404502D14FF0020808E0DFF8988080
:1004E000404502D14FF0030801E04FF0040808FA3C
:1004F00006F848EA0508CCF808804D68D9F800608D
:10050000ED024D4601D5164300E096432E604D683E
:10051000DAF80060AD02554601D5164300E0964377
:100520002E604D68DBF80060AD035D4601D51643D3
:1005300000E096432E604D68DEF80060ED037546DE
:1005400001D5164300E096432E60641C0D682A46D0
:10055000E5407FF431AFBDE8F88F000008040140AA
:10056000000011100010024000000140000801408E
:10057000000C014000100140001401400AB101616B
:1005800070470904FBE700000148806870470000DD
:100590000800002002488168027811448160704799
:1005A00008000020074810B5016841F01001016003
:1005B000032000F075F80F2000F006F800F024F892
:1005C000002010BD0020024070B50D4D04464FF4D0
:1005D0007A712878B1FBF0F00A490968B1FBF0F0B4
:1005E00000F027FC48B9102C07D200222146501EEB
:1005F00000F036F800206C6070BD012070BD000076
:1006000008000020140000200C4808B5816941F062
:1006100001018161816901F001010091C16941F02D
:100620008051C161C06900F0805000900448416869
:1006300021F0E06141F00071416008BD001002400E
:1006400000000140002809DB00F01F020121914059
:100650004009800000F1E020C0F800117047000060
:10066000F0B40E4B1B680C46C3F30223C3F107051D
:10067000042D00D90425191D072901D2002300E00B
:10068000DB1E012606FA05F1491E214099409E40D5
:10069000761E16403143F0BC01F055BB0CED00E076
:1006A000064900F0070208684FF6FF03184040EAC9
:1006B0000220034A10430860704700000CED00E080
:1006C0000000FA052DE9F0470F46050061D0434EC2
:1006D000306800F00700B84209D2306820F0070007
:1006E00038433060306800F00700B84251D12868C4
:1006F0003B4C810712D5400703D5606840F4E060A9
:1007000060602878000703D5606840F4605060603E
:100710006068A96820F0F000084360602878C0078E
:1007200028D06868012810D02168022810D08907D5
:1007300000292EDA616821F0030101436160FFF7AF
:1007400023FF804641F288390DE021688903EFE7F5
:100750008901EDE7FFF718FFA0EB0801494502D931
:100760000320BDE8F0876068696800F00C00B0EB1A
:10077000810FEFD1306800F00700B8420BD9306824
:1007800020F0070038433060306800F00700B842BE
:1007900001D00120E5E72878400705D56068E968C1
:1007A00020F4E060084360602878000706D56068A0
:1007B000296920F4605040EAC100606000F038F818
:1007C0006168084AC1F30311515CC84006490860DA
:1007D00006480068FFF7F8FE0020C2E7002002404C
:1007E000001002404A270008140000200C000020DE
:1007F0000448054900684968044AC1F30221515C74
:10080000C840704714000020001002405A2700081A
:100810000448054900684968044AC1F3C221515C93
:10082000C840704714000020001002405A270008FA
:100830000E4A51680E4801F00C03042B11D0082B0E
:100840000FD10C48C1F38343C903C05C0AD551687A
:10085000084AC1F34041921E515C054A5043B0FB27
:10086000F1F070470449484370470000001002400F
:1008700000127A003A27000800093D002DE9F84FE0
:10088000040070D02078C04DC00749D06868C0F31C
:100890008100012807D06868C0F38100022809D1CF
:1008A0006868C00306D52868800339D560680028C9
:1008B000E7D035E06068B0F5803F0BD010B1B0F5FF
:1008C000A02F11D0286820F480302860286820F4F8
:1008D000802002E0286840F480302860606890B191
:1008E000FFF752FE06460AE0286840F480202860A0
:1008F000F0E700BFFFF748FE801B642873D8286824
:100900008003F7D50CE0FFF73FFE064605E000BF89
:10091000FFF73AFE801B6428F0D828688003F7D4DC
:1009200020789A4E80074FF001094FF0000839D522
:10093000686810F00C0F07D06868C0F381000228C7
:1009400009D16868C00306D42868800714D52069D7
:10095000012808D110E02069B0B1C6F80090FFF777
:1009600013FE074605E00AE1FFF70EFEC01B022852
:10097000C4D828688007F7D52868616920F0F80096
:1009800040EAC10028600DE0C6F80080FFF7FCFDDA
:10099000074604E0FFF7F8FDC01B022823D82868AB
:1009A0008007F7D4207800072CD57948A169D9B100
:1009B000C0F80090FFF7E8FD074604E0FFF7E4FD0C
:1009C000C01B02280FD8686A8007F7D571484FF41A
:1009D000FA510068B0FBF1F0009000BF0098411E92
:1009E0000091FAD20EE080E0C0F80080FFF7CCFD65
:1009F000074604E0FFF7C8FDC01B022875D8686AE7
:100A00008007F7D42078400760D5E8690027C00048
:100A100008D4E86940F08050E861E869012700F0F7
:100A2000805000905C480168C90513D40168834672
:100A300041F480710160FFF7A7FD824606E000BF28
:100A4000FFF7A2FDA0EB0A0064284ED8DBF80000F7
:100A5000C005F5D5E06801280AD008B1052813D0F3
:100A6000286A20F001002862286A20F0040002E0D1
:100A7000286A40F001002862E06841F2883B98B1A2
:100A8000FFF782FD82460BE0286A40F004002862EE
:100A9000EEE700BFFFF778FDA0EB0A0159455AD8F1
:100AA000286A8007F6D50CE0FFF76EFD824605E068
:100AB000FFF76AFDA0EB0A0159454CD8286A800768
:100AC000F6D41FB1E86920F08050E861E06988B38E
:100AD0006968C1F38101022944D00228C6F8608008
:100AE00004D0FFF751FD044638E034E0FFF74CFD39
:100AF000074604E0FFF748FDC01B02282BD82868F2
:100B00008001F7D4206AB0F5803F05D16868A168FC
:100B100020F4003008436860D4E90801084369689C
:100B200021F4741108436860C6F86090FFF72CFD4B
:100B3000044606E025E000BFFFF726FD001B022863
:100B400009D828688001F7D51BE000BFFFF71CFD1E
:100B5000001B022802D90320BDE8F88F2868800115
:100B6000F4D40EE00128F7D06868226A00F48031DE
:100B7000914204D1616A00F47010884201D00120D2
:100B8000EAE70020E8E700000010024000004242CF
:100B900080044242140000200070004070B5040040
:100BA00009D0606A002540B125616561A56294F8AD
:100BB000510040B10CE0012070BD6068B0F5827F4B
:100BC000F4D0E561F2E784F85050204600F040F898
:100BD000022084F851002068016821F04001016082
:100BE000A088218900F4827001F404410843A1899E
:100BF00001F400610843217C01F002010843217DDA
:100C000001F001010843218B01F400710843217FA9
:100C100001F03801084394F8201001F080010843E6
:100C2000218D01F40051084321680860A069042166
:100C300001EA1040216848602068C16921F4006120
:100C4000C1616565012084F85100002070BD00007D
:100C500030B585B000240094019402940394006898
:100C60001549884225D11548C16941F48041C161C7
:100C7000C16901F480410491816941F008018161F9
:100C800080690F4D00F0080004904FF42040009060
:100C9000022001900320039069462846FFF77EFB5F
:100CA0004FF48040CDE90004694628460294FFF7DE
:100CB00075FB05B030BD0000003800400010024058
:100CC000000C01402DE9F84F044690F85000002632
:100CD000984615468A4601280CD0012784F85070A2
:100CE000FFF752FC814694F85100B346012804D026
:100CF00002269AE00220BDE8F88FBAF1000F6FD00B
:100D0000002D6DD0032084F85100C4F854B0C4F80D
:100D100030A0A586E586C4F838B0A4F83CB0A4F8A5
:100D20003EB0C4F844B0C4F840B0A068B0F5004F7D
:100D300009D12068016821F0400101602068016844
:100D400041F48041016020680168490603D40168CC
:100D500041F040010160E068B0F5006F606803D0C9
:100D600058B3012D29D049E008B1012D1FD1206BC6
:100D700021680088C86006E020688168890709D575
:100D8000216B0988C160206B801C2063E08E401EAF
:100D9000E0860CE0FFF7F8FBA0EB0901414503D327
:100DA000B8F1FF3F03D006E0B8F1000F03D0E08EAA
:100DB0000028E1D125E0032635E0206B216800788A
:100DC000087306E02068816889070AD5216B0978D5
:100DD0000173206B401C2063E08E401EE0860DE016
:100DE0001FE0FFF7D1FBA0EB0901414503D3B8F1A8
:100DF000FF3F03D0DFE7B8F1000FDCD0E08E002822
:100E0000E0D14A464146204600F03FFD08B120208F
:100E10006065A06818B92068C16880680090606D3E
:100E200008B1012601E084F8517084F850B03046D2
:100E300061E710B5401EB0F1807F01D3012010BDE5
:100E40004FF0E02460610F21601700F07CFF00206C
:100E5000A06107202061002010BD7047704700008E
:100E600070B590F83C20012A26D0012480F83C403F
:100E7000022280F83D2003685A689D6822F07006BF
:100E80000A6832435A600D4B02689A4208D0B2F1A8
:100E9000804F05D00A4B9A4202D00A4B9A4204D1A5
:100EA000496825F080031943916080F83D40002196
:100EB00080F83C10084670BD022070BD002C014037
:100EC000000400400008004010B5040003D094F86E
:100ED0003D0010B107E0012010BD002084F83C0067
:100EE000204600F01FF8022084F83D00211D2068F4
:100EF00000F072FD012084F8460084F83E0084F87A
:100F00003F0084F8400084F8410084F8420084F8EF
:100F1000430084F8440084F8450084F83D00002034
:100F200010BD000008B50068B0F1804F12D10A482A
:100F3000C16941F00101C161C069002200F00100F6
:100F4000009011461C20FFF78BFBBDE808401C20D9
:100F5000FFF778BB08BD00000010024090F83D107C
:100F6000012901D001207047022180F83D1001685D
:100F7000CA6842F00102CA6000680B49884208D082
:100F8000B0F1804F05D00949884202D00849884213
:100F900004D1816801F00701062903D0016841F0FE
:100FA0000101016000207047002C01400004004056
:100FB0000008004070B5044690F83C000025012868
:100FC00017D0012684F83C60022084F83D00206898
:100FD000826822F0770222F47F42826008685028FB
:100FE00038D00DDC20284FD005DC90B3102811D16B
:100FF0004AE0022070BD302846D040280AD13BE0AC
:1010000060282FD070280DD0B0F5805F03D0B0F5E8
:10101000005F12D0012584F83D60002084F83C0078
:10102000284670BDCB68D1E90121206800F00AFD97
:101030002068816841F0770109E0CB68D1E901219E
:10104000206800F0FFFC2068816841F480418160E5
:10105000E1E719E0CA684968206800F005FD502101
:10106000206806E0CA684968206800F00EFD60212B
:10107000206800F0F1FCCEE7CA684968206800F0FB
:10108000F3FC40212068F4E7226801461046F0E7AF
:10109000704770B50446006801694FF00005C94308
:1010A000890715D4C168C943890711D4E91E0161B4
:1010B00001202077206880698007204602D0FFF752
:1010C000E7FF04E000F098F8204600F096F8257756
:1010D00020680169C943490717D4C168C943490752
:1010E00013D46FF004010161022020772068806929
:1010F00010F4407F204602D0FFF7CAFF04E000F062
:101100007BF8204600F079F8257720680169C9430B
:10111000090716D4C168C943090712D46FF0080142
:101120000161042020772068C0698007204602D032
:10113000FFF7AEFF04E000F05FF8204600F05DF836
:10114000257720680169C943C90617D4C168C94316
:10115000C90613D46FF010010161082020772068C0
:10116000C06910F4407F204602D0FFF791FF04E0F1
:1011700000F042F8204600F040F825772068016929
:10118000C943C90708D1C168C943C90704D1891E29
:101190000161204600F032F820680169C943090660
:1011A00009D4C168C943090605D46FF08001016103
:1011B0002046FFF752FE20680169C943490609D459
:1011C000C168C943490605D46FF04001016120465A
:1011D00000F02AF820680169C94389060BD4C16868
:1011E000C943890607D46FF0200101612046BDE89C
:1011F0007040FFF733BE70BD7047704708498842A2
:101200000AD1084890F8D510012906D0002903D149
:101210005FF0010180F8D51070470021FAE7000067
:101220004003002010020020704770477047000004
:10123000F8B5016804460868CA684B6910F00F0FDA
:101240004FF0000559D003F0010602F490773743C0
:1012500065D0C10705D0D10503D5616C41F001010E
:101260006164410705D5D90703D0616C41F00201E3
:101270006164810705D5D90703D0616C41F0040191
:101280006164010707D502F02001314303D0616C8E
:1012900041F008016164616C00293AD0800604D5F0
:1012A000900602D5204600F031FC20684069616C50
:1012B000C0F38010090700D460B3204600F0FFFBA4
:1012C00020684069400621D52068143050E8001F8E
:1012D00021F0400140E80012002AF5D1E06BA8B1EE
:1012E0006D494163E06BFEF7FBFF002811D0E06B16
:1012F000416B01B0BDE8F040084783060FD5930667
:101300000DD52046BDE8F84000F000BC2046FFF7B0
:101310008DFFF8BD2046FFF789FF6564F8BD266B99
:101320002023012E7CD1C6067AD5D60678D508684A
:101330004868009048694FF00206400640D5E16BCE
:10134000086840680004000CE8D0A28D8242E5D90C
:10135000E085886920282DD020680C3050E8001FD7
:1013600021F4807140E80012002AF5D12068143081
:1013700050E8001F21F0010140E80012002AF5D1D9
:101380002068143050E8001F21F0400140E80012AE
:10139000002AF5D184F84230256320680C3050E8EB
:1013A000001F21F0100140E80012002AF5D1E06B87
:1013B000FEF772FF6663A08DE18D401A81B22AE0CC
:1013C000A08DE18D401A81B2E08D0028A6D00029C1
:1013D000A4D022680C3252E8000F20F4907042E84A
:1013E0000007002FF5D12068143050E8002F22F0BC
:1013F000010240E80027002FF5D184F84230256330
:1014000020680C3050E8002F22F0100240E8002342
:10141000002BF5D166632046FFF707FFF8BDFFE715
:1014200005062BD5150629D594F841002128F5D1BC
:10143000A068B0F5805F01D12069B0B1206A411C7D
:101440002162216800784860E08C401E0004000C96
:10145000E084E3D12068C16821F08001C160206888
:10146000C16841F04001C160D8E7206A0088C0F33C
:1014700008004860206A801C2062E5E74006CDD560
:101480005006CBD5CA68204622F04002CA6084F8D4
:10149000413000F0E6F8C1E7AF1A000870B504006B
:1014A00004D094F84100002510B106E0012070BD81
:1014B00084F84050204600F023F8242084F84100AE
:1014C0002068C16821F40051C160204600F080FB13
:1014D0002068016921F4904101612068416921F08F
:1014E0002A0141612068C16841F40051C16065640E
:1014F000202084F8410084F842006563002070BD1C
:1015000030B585B0002400940194029403940068DF
:10151000184988422CD11848816941F48041816181
:10152000816901F480410491816941F00401816184
:101530008069124D00F0040004904FF40070009098
:10154000022001900320039069462846FEF726FFFB
:101550002815CDE90004694628460294FEF71EFFCF
:10156000002211462520FFF77BF82520FFF76AF8B7
:1015700005B030BD003801400010024000080140B5
:1015800090F84230202B01D00220704721B11AB1CF
:101590000023036300F078BB01207047084910B5B1
:1015A00088420CD1012207490548FFF7E9FF0A23C9
:1015B000BDE8104001220349014800F005B810BD04
:1015C00088030020040000202DE9F843044690F829
:1015D00041001F4616460D46202802D00220BDE8D5
:1015E000F8837DB176B100206064212084F8410049
:1015F000FEF7CAFFA6848046E684A068B0F5805F47
:1016000002D003E00120EAE7206910B12E46002550
:101610000EE000260CE08021204600F050FBA0B92F
:10162000AEB116F8010B21684860E08C401EE084E2
:10163000E08C43464FF0000200970028EBD14FF0BA
:101640004001204600F03BFB30B10320C7E735F8EE
:10165000020BC0F30800E6E7202084F841000020D8
:10166000BDE77047FEE7000070B564210C48FEF747
:10167000ABFD0B4D002405F16C0085F8644085F846
:10168000654085F86640AC666421B735FEF79CFD81
:101690006C76AC762C776C77AC77EC7770BD00000D
:1016A0001002002073B508B1012200E000220C4CAA
:1016B0004FF480612068FEF761FF4FF480550022EF
:1016C00029462068FEF75AFF6423012201A9054834
:1016D000FFF7F8FA012229462068FEF74FFF7CBD8C
:1016E00000000020E80200202DE9F04186B000242F
:1016F00027480094019402940394816941F01001F9
:101700008161816901F010010491816941F020013A
:101710008161816901F020010491816941F0040136
:101720008161816901F004010491816941F008013E
:1017300081618069174F00F00800049000220221A7
:101740003846FEF71BFFDFF8508000224FF4B051FF
:101750004046FEF713FF0122D1024046FEF70EFF7E
:10176000022001250326CDE90005CDE902466946A0
:101770003846FEF713FE4FF4F050CDE90005CDE9F1
:10178000024669464046FEF709FE06B0BDE8F08114
:101790000010024000080140000C01400F4810B545
:1017A0000D4901604FF48271416000218160C16088
:1017B0004FF400720161C0E90512C161016241622A
:1017C00081620A21C162FFF7E9F9002803D0BDE870
:1017D0001040FEF75FBD10BD00380040E802002059
:1017E00010B586B000241748009401940294039425
:1017F00004944FF080410594016041F63F71C0E9C7
:10180000011442F22731C0E903148461FFF75CFB45
:1018100008B1FEF73FFD4FF480500090694609483B
:10182000FFF7C8FB08B1FEF735FD049404A905488D
:101830000594FFF715FB002801D0FEF72BFD06B03D
:1018400010BD0000400300200D4810B50B49016099
:101850004FF4E131416000214FF40052C0E902121F
:101860000C22C0E904128161C161FFF717FE002854
:1018700003D0BDE81040FEF70DBD10BD003801409B
:1018800088030020FEE7FEE7704738B50B4600925C
:1018900004460022802100F009F8002804D0606D81
:1018A00040F020006065032038BD00002DE9F843BA
:1018B0001E46914688460446089DFEF765FE401B7D
:1018C000351AFEF761FE074625480068C0F3CB30A5
:1018D000684338E0701C37D0FEF756FEC01BA842A4
:1018E00003D215B1009860B32CE02068416821F064
:1018F000E00141606068B0F5827F0BD1A068B0F56F
:10190000004F02D0B0F5806F04D12068016821F04B
:1019100040010160A06AB0F5005F09D1206801684C
:1019200021F4005101602068016841F40051016018
:10193000012084F85100002084F850000320BDE805
:10194000F8830025401E00902068816838EA010075
:1019500004D000214945BDD10020F0E70121F9E77D
:10196000140000207047FEF715BE30B58FB0282157
:101970006846FEF729FC14210AA8FEF725FC012180
:101980000804CDE900100024029402250491CDE959
:1019900007504FF4E01009906846FEF76FFF08B15A
:1019A00072B6FEE70F20CDE90A054FF48060CDE95D
:1019B0000C4002210AA80E94FEF784FE002801D0F4
:1019C00072B6FEE70FB030BD704700000148FFF768
:1019D00060BB000040030020F0B50268164B174CB6
:1019E000174D4FF08047984205D0B84203D0A0422F
:1019F00001D0A84203D122F070064A6832439842CF
:101A000005D0B84203D0A04201D0A84203D122F4AD
:101A10004074CA6822434C6922F08002224302606B
:101A20008A68C2620A688262984201D109690163C8
:101A300001214161F0BD0000002C01400004004084
:101A40000008004010B5846842EA032224F47F4471
:101A50000A432243826010BD826822F070020A436A
:101A600042F007018160704710B5036A046A24F0F0
:101A700001040462846924F0F00444EA021423F0AF
:101A80000A020A438461026210BD10B5036A046A47
:101A900024F010040462846923F0A00324F4704449
:101AA00044EA023243EA01118261016210BD10B5BD
:101AB000406A0021C185C184FFF7B8FB10BD0168F1
:101AC0000C3151E8002F22F4907241E80023002BE2
:101AD000F5D10168143151E8002F22F0010241E8EC
:101AE0000023002BF5D1016B012909D101680C31CC
:101AF00051E8002F22F0100241E80023002BF5D11D
:101B0000202180F8421000210163704708B590F849
:101B10004210222901D0022008BD82684FF4805370
:101B20009A4201D1016921B1816A9A421BD04AB11E
:101B30000AE00268816A5268C2F308020A80816A78
:101B4000891C08E0026972B10268526802F07F02E3
:101B50000A70816A491C8162C18D491E0904090C01
:101B6000C18503D01BE002685268F1E70168CA68CA
:101B700022F02002CA600168CA6822F48072CA603A
:101B800001684A6922F001024A61202180F842106E
:101B900000214163026B012A03D0FFF7FFFC002004
:101BA00008BD016301680C3151E8002F22F01002DA
:101BB00041E80023002BF5D101680A68D20602D55E
:101BC0000A6849680091818DFFF72FFBE7E7000065
:101BD00070B5044600680169E26821F44051114380
:101BE00001612169A0680843616908432168CA68E6
:101BF00041F20C639A430243CA6020684169A269BA
:101C000021F44071114341611E492068884202D18C
:101C1000FEF7FEFD01E0FEF7EBFD00EBC00101EB7E
:101C20000012606864218000B2FBF0F3B3FBF1F3B3
:101C30006FF018067343B2FBF0F5B2FBF0F605EB5C
:101C40008305322303EB0515B5FBF1F5B6FBF1F681
:101C500005F0F00505EB0615B2FBF0F6B2FBF0F06F
:101C6000B0FBF1F06FF01802504306EB800003EB7D
:101C70000010B0FBF1F0216800F00F0028448860EC
:101C800070BD00000038014081628285C28500215C
:101C90004164222180F84210016921B10168CA68BB
:101CA00042F48072CA6001684A6942F001024A61E6
:101CB0000068C16841F02001C160002070472DE933
:101CC000F041984617460E460446069D27E0681CDC
:101CD00025D02DB1FEF758FCA0EB0800A8421ED974
:101CE00020680C3050E8001F21F4D07140E8001249
:101CF000002AF5D12068143050E8001F21F00101BE
:101D000040E80012002AF5D1202084F8410084F830
:101D10004200002084F840000320BDE8F0812068E4
:101D2000006836EA000004D00020B842CFD000207E
:101D3000F3E70120F9E700000148FFF779BA000056
:101D400088030020FEE70907090E002804DB00F1E4
:101D5000E02080F80014704700F00F0000F1E02050
:101D600080F8141D7047162832D2DFE800F0310BDE
:101D70000D0F2F11131517191B1D1F21232729259F
:101D80002B2D2F2F30207047312070473220704785
:101D90003420704735207047362070473720704711
:101DA00038207047392070472B2070472D2070470E
:101DB0002A2070472F2070472E2070472820704718
:101DC00029207047402070475E20704733207047BD
:101DD0003F20704730B50021064AFF240B464FF4E0
:101DE000FC7508B1545400E05354491CA942F8DB77
:101DF00030BD00001800002010B50C46C0B240F005
:101E000080010020FFF74EFCE0B240F04001BDE849
:101E100010400020FFF746BC70B5144C4FF400652D
:101E2000002229462068FEF7A9FB012229462068E6
:101E3000FEF7A4FB21210020FFF734FCC021002085
:101E4000FFF730FC04210020FFF72CFC13210020B9
:101E5000FFF728FC20210020FFF724FC0C210020A4
:101E6000FFF720FCBDE8704000F014BA000000202D
:101E7000FEF798FBFFF779FDFFF736FCFFF78EFCC6
:101E8000FFF7E2FCFFF7ACFCFFF7C6FFFFF7ECFB48
:101E900000F01CF801220A490A48FFF771FB0A48C2
:101EA000FFF75CF8064C0025207820B100F0C4F95B
:101EB00000F004FA257000F0C5F900F0EBF9F3E743
:101EC0000400002088030020400300207CB500208F
:101ED000FFF780FF002501240021009430232A46CB
:101EE0000846019400F03AF900F0D4F90A20FEF710
:101EF00043FA0835542DEFDB00252E46CDE9004688
:101F0000002130232A46084600F028F900F0C2F9E3
:101F10000A20FEF731FA0835542DEFDB00250021A9
:101F2000009430232A460846019400F017F90094E3
:101F3000302305F10C0200210B20019400F00EF972
:101F40000094302305F1180200211720019400F0BD
:101F500005F90094302305F1240200212320019487
:101F600000F0FCF80094302305F1300200212F200E
:101F7000019400F0F3F80094302305F13C020021B5
:101F80003B20019400F0EAF80094302305F1480268
:101F900000214720019400F0E1F800F07BF90A20CD
:101FA000FEF7EAF96D1C0C2DB9DB00961E232D22DD
:101FB0000A211920019600F0D1F800962823372233
:101FC00014212320019600F0C9F8142323220A21AA
:101FD0001920009600F056F8282337221E212D20C4
:101FE000009600F04FF8282323221E211920009686
:101FF00000F048F8142337220A212D20009600F023
:1020000041F800F047F94FF4FA60FEF7B5F9002007
:10201000FFF7E0FEBDE87C40C820FEF7ADB9000048
:102020002DE9FF4F8B46164900EB800091460025B5
:1020300000EB010A4FF001080AEB0500002410F83C
:10204000A07C0BEB050600BF08FA04F0384204D070
:1020500009EB04013046039A05E0039868B10022B9
:1020600009EB0401304600F057F8641C082CEBDB48
:102070006D1C052DE0DBBDE8FF8F0122F0E70000BD
:10208000582500082DE9FF4F054602980C469B464F
:10209000191BA0EB05004FF0FF3202D549429246D2
:1020A00001E04FF0010A002801DA404200E001227D
:1020B00091464E004700214628460D9A00F02CF824
:1020C000B74215DDA6EB67080DE000BFB8F1000FC1
:1020D00002DB5444A8EB07084D44B044214628468F
:1020E0000D9A00F019F802988542EFD1BDE8FF8FF4
:1020F000A7EB66080DE000BFB8F1000F02DB4D440E
:10210000A8EB06085444B844214628460D9A00F02E
:1021100003F85C45F0D1E9E770B554281AD20029DC
:1021200018DB302916DACB1701EB537424F00706BD
:102130000123891B8B40E110C1EBC101064D01EB6E
:10214000410100EB8100284401780AB1194300E005
:102150009943017070BD0000180000202DE9F8437C
:102160000446DDE9080798461546894601281BD034
:102170000B4620460097FFF785FF43462A4619463F
:1021800020460097FFF77EFF224643464946104609
:102190000097FFF777FF2A464346494610460097C7
:1021A000FFF770FFBDE8F883AC4201DD661B0EE06F
:1021B0002E1B0CE022464346494610460097FFF787
:1021C00061FFAC4201DD641E00E0641C761E002E3F
:1021D000F0DCE7E72DE9F04F994614468A460646BB
:1021E0000027DDF824801DE043464A462146761C40
:1021F000FFF716FF04F1050B4C4609F1080508E04E
:10220000B8F1000F15D0002221465846FFF784FF91
:10221000641CAC42F4DB0BF101044F2C01DD002403
:10222000A9467F1C3078002801D05745DCDBBDE88B
:10223000F08F0122E8E70000014981F8D6007047DD
:102240001002002038B5124C0125009594F8650065
:102250000923204400220E21FFF7BCFF009594F8CB
:10226000D0102723322204F16C00FFF7B3FF94F85B
:10227000D50058B1012808D10020009094F8D4006E
:10228000102302460921FFF7FDFE38BD0095F5E752
:102290001002002070B500210846FFF7ADFD064D85
:1022A00000244FF4FC76295D0120FFF7FBF9641C44
:1022B000B442F8DB70BD0000180000202DE9F047A3
:1022C000DFF890824FF00009424602F16C0A12F8E2
:1022D000D11F98F8D60012F86C7C12F86B4C9578E8
:1022E000D6781B2827D2DFE800F026CBCBCBCBCB90
:1022F000CBCBCBCBCBCBCBCBCBCBCBCBCBCBCBCB2E
:10230000260E8028520064219248FDF75DFF88F870
:10231000649088F8659088F866904C466421504631
:1023200008F1B705C8F86890FDF74EFF6C76AC76FB
:102330002C776C77EC77BDE8F0874846454688F8FF
:10234000D69049B18046A86664215046FDF73CFF0F
:1023500085F8D08085F8D1807E4890F8D300401E63
:10236000C0B256B185F8D300052E04D00620301A2D
:1023700085F8D400DFE70520F9E7002FDBD085F8EA
:10238000D3007F1E05F8657F641E6C70D3E74D4651
:10239000404688F8D69051B164215046C8F868503C
:1023A000FDF712FF88F8D050404688F8D1506949AF
:1023B00091F8D310491CC9B2532E09D080F8D3101C
:1023C00026B10621314488F8D410B4E70521F9E795
:1023D00090F864209442AED07F1C80F8D31080F82F
:1023E0006570641C88F86640A5E74F46444688F847
:1023F000D69041B164215046A766FDF7E5FE84F80A
:10240000D07084F8D1705348401E06BB002D92D086
:1024100004E0615D62196D1C02F8011C94F86410FF
:10242000A942F6DCC9B20F5414F8650F401E04F837
:102430000109A078401EA07094F86F00401E84F837
:102440006F0017E0615D62196D1C02F8011C94F8C1
:102450006410A942F6DCC9B20F5494F8D4000528E0
:102460000CD00621401A84F8D40014F8D30F401E73
:1024700004F86F092078401E20705CE70521F1E721
:102480004446FFF770FC84F8D69094F8D4104D467B
:10249000532994F8641005D136E0621812F8012C23
:1024A0006254491E94F8D3208A42F6DBD1B26054BC
:1024B00094F8661094F86400814202D1491C84F8B3
:1024C0006610401C84F8640094F8D10040B1642187
:1024D0005046A566FDF778FE84F8D05084F8D150B8
:1024E00094F8D300401C84F8D30094F8D40020B1B1
:1024F0000621084484F8D4001DE70521F9E7621895
:1025000012F8012C6254491E94F8D3208A42F6DB5B
:10251000D1B2605494F86400401C84F8640094F8CC
:102520006500401C84F8650094F86600401C84F83F
:10253000660094F8D10040B164215046A566FDF7CD
:1025400043FE84F8D05084F8D15014F8D30F401CC7
:1025500092E7000010020020000000000000005F71
:1025600000000007000700147F147F14242A7F2A2C
:1025700012231308646236495522500005030000F7
:10258000001C2241000041221C0014083E081408CF
:10259000083E0808005030000008080808080060DD
:1025A00060000020100804023E5149453E00427F71
:1025B000400042615149462141454B311814127F78
:1025C0001027454545393C4A494930017109050301
:1025D0003649494936064949291E00363600000069
:1025E000563600000814224100141414141400413B
:1025F0002214080201510906324979413E7E111127
:10260000117E7F494949363E414141227F41412265
:102610001C7F494949417F090909013E4149497ADD
:102620007F0808087F00417F41002040413F017F33
:10263000081422417F404040407F020C027F7F040B
:1026400008107F3E4141413E7F090909063E415144
:10265000215E7F09192946464949493101017F0117
:10266000013F4040403F1F2040201F3F4038403F37
:102670006314081463070870080761514945430053
:102680007F41410002040810200041417F00040204
:102690000102044040404040000102040020545424
:1026A00054787F48444438384444442038444448AB
:1026B0007F3854545418087E0901020C5252523E7D
:1026C0007F0804047800447D40002040443D007FA2
:1026D0001028440000417F40007C041804787C08E6
:1026E00004047838444444387C141414080814143E
:1026F000187C7C080404084854545420043F444087
:10270000203C4040207C1C2040201C3C4030403C71
:1027100044281028440C5050503C4464544C44000D
:102720000836410000007F00000041360800100814
:10273000081008784641467801020203040506079E
:1027400008090A0B0C0D0E0F10100000000000000D
:10275000000001020304060708090000000001024E
:102760000304000084270008000000201800000077
:10277000280100089C27000818000020180A000003
:1027800044010008000C01400000000001000000AE
:0C27900010000000000000000024F40015
:04000005080000ED02
:00000001FF
