:020000040800F2
:10000000E80A0020B5010008C7390008C936000811
:10001000C53900083D2200089D3E00080000000090
:10002000000000000000000000000000A53A0008E9
:100030003F22000800000000C9390008A73A000864
:10004000CF010008CF010008CF010008CF01000850
:10005000CF010008CF010008CF010008CF01000840
:10006000CF010008CF010008CF010008CF01000830
:10007000CF010008CF010008CF010008CF01000820
:10008000CF010008CF010008CF010008CF01000810
:10009000CF010008CF010008CF010008CF01000800
:1000A000CF010008CF010008CF010008CF010008F0
:1000B0000D3B0008193B0008CF010008CF010008E4
:1000C000CF010008CF010008CF010008CF010008D0
:1000D000CF010008853E0008CF010008913E0008CE
:1000E000CF010008CF010008CF01000800F002F89E
:1000F00000F051F80AA090E8000C82448344AAF171
:100100000107DA4501D100F046F8AFF2090EBAE86E
:100110000F0013F0010F18BFFB1A43F0010318473B
:1001200090AA0000B0AA0000103A24BF78C878C195
:10013000FAD8520724BF30C830C144BF04680C60ED
:10014000704700000023002400250026103A28BF35
:1001500078C1FBD8520728BF30C148BF0B60704739
:1001600066290AF00180002070471FB59DE8030052
:1001700000F09CFA00F07EFA04000020002108F054
:1001800075FF401C60600020002108F085FFE060E2
:100190001FBD10B510BD00F0D4FE1146FFF7E5FFFE
:1001A00006F02EFF01F06EF903B4FFF7F2FF03BC77
:1001B00001F09EF90948804709480047FEE7FEE73D
:1001C000FEE7FEE7FEE7FEE7FEE7FEE7FEE7FEE707
:1001D00004480549054A064B70470000093B0008E2
:1001E000ED000008E8040020E80A0020E8060020EE
:1001F000E806002010B500F03DFA001D10BD00BF5C
:100200006D8E000070B5064600F030FA056806F104
:100210000B0020F00704B4429CBF002070BD2B46A9
:100220006A68BAB11068A04210D304F1080188428C
:100230003CBF5068586007D351681019416011687D
:10024000091B016058601460101D70BD1346526890
:10025000002AE7D12146284600F014FA0028DED112
:1002600070BD70B50446051F00F000FA0068002C50
:1002700014BF446870BD002C18BFAC423CBF204680
:100280006468F8D301680A18AA4218BF456003D110
:100290002A6805461144016028684119A1421CBF23
:1002A0006C6070BD6168696021680844286070BD39
:1002B0000FB41CB5074B06AA7B446946009005980D
:1002C00000F049FC0020694600F058FC1CBC5DF8B9
:1002D00014FB0000C10800002DE9F0474FF0000AB0
:1002E00089460446C0F820A02046E16888470028D7
:1002F00076D0252806D0D4E901219047206A401CF9
:100300002062F1E7E168204600258847C4F81CA078
:1003100006460027C4F818A02A2E09D0304604F05B
:100320008CFC38B304EB8708303EC8F8186019E03D
:1003300059F8041B204604EB87029161E168884765
:10034000012F064618D1E069002820DA25F02005A3
:100350001DE0D8F8180000EB800006EB40003038B4
:10036000C8F818002046E1688847064604F065FC96
:100370000028EED1012F0AD02E2E08D12046E168A8
:1003800088477F1C0646022F45F02005C4DBA06984
:10039000002803DA404245F00105A061E80701D0DA
:1003A00025F01005B6B1A6F14100192802D8203673
:1003B00045F400654A463146204625604D46FFF724
:1003C000CFFE58B1012806D0ED1D25F0070000F141
:1003D000080989E704E005F1040985E730468AE762
:1003E000206ABDE8F08740EA0103024630B59B076A
:1003F00010D14FF0013400E008C208C91D1B9D4315
:1004000015EAC41FF8D013F0FF0102F8011B0DD04C
:100410001B0AF8E711F8013B002B02F8013B05D05D
:1004200011F8013B002B02F8013BF3D130BD10B5B0
:10043000431C02E010F8011B71B18107FAD14FF0A3
:10044000013202C88C1A8C4314EAC211F9D0C01AC6
:100450000A0603D0C01E10BDC01A10BD0A0401D088
:10046000801E10BD0902FCD0401E10BD40EA0103F1
:1004700070B59B072ED14FF00136042A2AD308C845
:1004800010C99D1B9D43121F15EAC61517D0D8B27F
:10049000E1B2401A50EA056110D198B2A1B2401AF7
:1004A00050EA05410AD123F07F4024F07F41401AF1
:1004B00050EA052102D1180EA0EB146070BDA342D2
:1004C000DBD018BA21BA884201D9012070BD4FF0A3
:1004D000FF3070BD0AB9002070BD10F8013B11F863
:1004E000014B63B1A3420AD1521E08D010F8013B60
:1004F00011F8014B1BB1A34201D1521EEDD1181BC3
:1005000070BD421E12F8013F002BFBD111F8013BD8
:10051000002B02F8013BF9D1704710B5203AC0F02A
:100520000B80B1E81850203AA0E81850B1E81850F4
:10053000A0E81850BFF4F5AF5FEA027C24BFB1E831
:100540001850A0E8185044BF18C918C0BDE81040A2
:100550005FEA827C24BF51F8043B40F8043B08BFAB
:100560007047D20728BF31F8023B48BF11F8012B72
:1005700028BF20F8023B48BF00F8012B70474FF01E
:1005800000020429C0F0128010F0030C00F01B8060
:10059000CCF1040CBCF1020F18BF00F8012BA8BF6E
:1005A00020F8022BA1EB0C0100F00DB85FEAC17C32
:1005B00024BF00F8012B00F8012B48BF00F8012BE5
:1005C00070474FF0000200B5134694469646203916
:1005D00022BFA0E80C50A0E80C50B1F12001BFF4FC
:1005E000F7AF090728BFA0E80C5048BF0CC05DF862
:1005F00004EB890028BF40F8042B08BF704748BFB0
:1006000020F8022B11F0804F18BF00F8012B704723
:1006100010B5044610F0030F08BF11F0030F40F0AF
:1006200015804FF0013E121FC0F20E8051F8043BBE
:10063000A3EB0E0C2CEA030C1CEACE1C08BF40F8FE
:10064000043BF0D0A1F1040102F10402521E08DBC8
:1006500011F8013B002B00F8013BF7D11146FFF7E1
:100660008EFF204610BD70477047704700487047A6
:100670008C04002000487047A40400207047704795
:100680007047704738B504460A4600206946AFF304
:100690000080002808BF38BD02460099204600F0BF
:1006A000CDFA012038BD012000F002BCF8B5AFF34F
:1006B0000080054600200C46102000BF0646A81901
:1006C000A0420DD9324669460020AFF300800700F2
:1006D00008BF00F0EDFB0098A04218BF0546C41902
:1006E000FFF7C4FF05600746F01D20F0070046191C
:1006F000284600F00AF8B44208BFF8BDA21B3146F4
:100700003868BDE8F84000F099BA00210160C0E9FE
:10071000011070471020704710B500F08BFA006888
:1007200010BD10B5044600F085FA046010BD704796
:100730002DE9FF4F0C461E464FF0FF378BB0D2E934
:100740000001DDF860800A908A46C1F30A5505B9B8
:100750003D46002108464FF00000BAF1000F00F4BA
:10076000400005DA00EB80004FF4400101EA500040
:100770004FEA9059B9F1010F00DDB9460A9850EAE5
:100780004A000ED044F61050A5F2FF3545432F1411
:10079000B8F1000F1ED07542291E1EDDC9F10002FE
:1007A0001CE0B8F1010F4FF0000001D0302103E050
:1007B000F24305E02154401CB042FBDB30460022EE
:1007C000002121540B99C1F80880C1E900200FB025
:1007D000BDE8F08FBD1B6D1CDEE74A4600DA6942BA
:1007E00006A800F0F3FA06AB93E8070003AB83E832
:1007F000070050460A9901F0ECF88DE80700A0F5D3
:1008000000501F3800900398002D0ADD42F21F01AE
:100810004A460844002303A90390684601F098FB68
:1008200009E0A0F500504A461F38002303A90390B1
:10083000684601F0B7FB8DE807000004000C03D008
:100840004FF0FF30410800E01046B8F1000F03D030
:100850000022009215461EE0751E05D400F008FA2D
:10086000303262556D1EF9D5B3460122084302D0DD
:1008700000227F1C04E02078302801D100227F1E56
:10088000002A099784D01DE0112D07DA00F0F0F955
:10089000303262556D1C50EA0102F5D1084302D096
:1008A0000098C8B10EE00021681E05E0235C625C80
:1008B00063542254401E491C8142F7DBAB46A81BFF
:1008C000401E0990002004F80B000B98099AC0F80C
:1008D0000880C0E9002B7AE711264FF0000857E79F
:1008E0002DE9F04F88460446D21D22F0070191B051
:1008F000D1E90001CDE90A0103F0D1FA02460B98D3
:10090000C00F01D02D2007E02068810701D52B20E2
:1009100002E0202101EAC000032A099001D0072A41
:1009200005DB03464146204600F0F0F90BE1207854
:10093000800601D5E06900E00620B8F1650F814628
:1009400006D0B8F1660F18D0B8F1670F70D131E05A
:100950000020B9F1110F009001DB112301E009F132
:1009600001030AAA01A90CA8FFF7E2FEDDE90C7059
:10097000002609F10105834647E001204B4600901F
:100980004FF000470AAA01A90CA8FFF7D1FEDDE944
:100990000DB00C995D46002610B909F101000D1843
:1009A000B9EB050003D4C0F1FF3609F10105A5EB51
:1009B00009002BE0B9F1010F01DA4FF00109002025
:1009C000B9F1110F0090484601DD112300E0034604
:1009D0000AAA01A90CA8FFF7ABFEDDE90C704D4691
:1009E00000268346207800070AD4AB4500DA5D462E
:1009F00001A8012D04DD411911F8011C302907D08F
:100A00004F4502DA17F1040F04DA012082460FE0A5
:100A10006D1EEEE7002F02DCED1B3E4403E0781C68
:100A2000A84200DD7D1CB81B00F1010A4FF0004711
:100A30002078000703D4AA4501DB4FF0FF3A0021DC
:100A4000B7F1004F0DF143088DF8431024D0022078
:100A50002B23002F01DA7F422D230A21021EA0F151
:100A6000010000DC5FB197FBF1FC97FBF1F201FBA9
:100A70001C7C17460CF1300C08F801CDEEE7A8F10C
:100A8000010003702188090501D5452100E0652199
:100A9000A0F1010800F8011C09980FA9A1EB0807B3
:100AA000FF1D00B10120411901EBEA70A169384432
:100AB000081A401EA0612078C00602D42046AFF379
:100AC0000080099828B1D4E901219047206A401C90
:100AD00020622078C00622D52046AFF300801EE0B9
:100AE000002E04DBB34502DD01A8805D00E030206C
:100AF000D4E901219047206A401C2062761CAAF1AB
:100B000001005FEA000A0AD1FFF7B4FDC06801687E
:100B1000405CD4E901219047206A401C2062281ED5
:100B2000A5F10105DCDC07E0D4E9012118F8010B8F
:100B30009047206A401C2062381EA7F10107F3DCB1
:100B40002046AFF30080032011B041E601694A1C42
:100B500002610878704700B58FB0CDE901310021FE
:100B6000059105497944CDE9031011466846FFF720
:100B7000B3FB0FB000BD0000E5FFFFFF0A6802F8FD
:100B8000010B0A60704700000FB4002300B589B064
:100B90000CA900910B99CB60214B7B440693214B10
:100BA0007B44079304236FF00042CDE901321E4AD3
:100BB0007A446B4608920246002009F037FB09B0E0
:100BC0005DF814FB70B506464FF0FF3015460C4635
:100BD000324686B00091CDE90101694600200490BB
:100BE00004A8FFF7D1FF02460498211825B108B1E7
:100BF000084600E020462860049800280DD0002A0E
:100C000002DD0098884208D03246081B69460094ED
:100C1000CDE9010404A8FFF7B7FF06B070BD0000DE
:100C2000EF01000007020000470100000048704784
:100C30008404002000487047840400200346406874
:100C40008C46002818BF88423CBF03464068F8D352
:100C500018681844884207D00CF1030020F0070000
:100C6000001D411A521A0146081D0A60FFF7F9BA21
:100C700030B5B0F10A024FEA900E71F100034EEA6E
:100C8000817EB0EB0E0061EB91014FEA101E4EEA3F
:100C9000017E10EB0E0041EB11114FEA102E4EEACF
:100CA000016E10EB0E0041EB11214FEA104E4EEA9F
:100CB000014E10EB0E0041EB1141401841F10001D3
:100CC0004FEAD00040EA41704FEAD10110EB8005B5
:100CD0004FEA810444EA907444EB01046D1944EB3B
:100CE0000404521BA3414FF0000348BF0A3200D551
:100CF00030BD401C41F1000130BD10B50446FFF786
:100D000079FA0068005D00F0010010BD2DE9F041A6
:100D10001F46044603260168072A01F4006004DB2D
:100D200008B116A505E016A503E008B115A500E079
:100D300015A521F010002060A069C01EA0610FB1B0
:100D4000401EA0612046AFF300804FB1D4E90121DD
:100D500038469047206A401C2062C01C206206E092
:100D6000206AFAE7D4E9012115F8010B9047761EB5
:100D7000F8D22046AFF30080BDE8F0814E414E002E
:100D80006E616E00494E4600696E6600426842B16F
:100D9000016811F8013B23B1521EC0E90012184648
:100DA00070470121C160881E704742685AB1C3680C
:100DB000016843B983688B4205D0491E521CC0E9C3
:100DC0000012002070474FF0FF3070472DE9F047C8
:100DD000814616468AB0354878440DC88DE80D0026
:100DE00032487844801C03AC0DC884E80D0041F6FD
:100DF0009B300844372190FBF1F290FBF1F5A5F10F
:100E0000800501FB12041B3C02D56442012000E076
:100E10000020DFF898A080460027FA44AAF1BE0A15
:100E20000EE0E0070AD03246684607EB470101238F
:100E30000AEB810101F0B6F88DE8070064107F1C11
:100E4000002CEED1194F7F44AE3F19E0E80715D0D2
:100E500007EB04100DF1180A90E80E008AE80E0066
:100E6000C068F04201D1981908903246012306A9C2
:100E700003A801F097F803AB83E807006D10641C2A
:100E8000002DE3D14FF0010332466946B8F1000F5F
:100E900003A802D001F05CF801E001F083F8C9E991
:100EA0000001C9F808200AB0BDE8F087289D0000BD
:100EB00010B500F0F5FABDE8104000F0ECBA000003
:100EC0004FF0013C50F8042B51F8043B9A4221D1D9
:100ED000A2EB0C03934313EACC1317D150F8042B65
:100EE00051F8043B9A4215D1A2EB0C03934313EA49
:100EF000CC130BD150F8042B51F8043B9A4209D182
:100F0000A2EB0C03934313EACC13DBD04FF00000A9
:100F1000704700BFD01A01BAB1FA81F101F018018F
:100F200022FA01F0CB40C1F12001DBB2C0B2C01AFD
:100F30002CFA01F3D11A914311EAC311E6D170479B
:100F400070477546FFF772FEAE4605006946534688
:100F500020F00700854618B020B5FFF739F9BDE845
:100F600020404FF000064FF000074FF000084FF010
:100F7000000B21F00701AC46ACE8C009ACE8C009A1
:100F8000ACE8C009ACE8C0098D4670472DE9FF4FB9
:100F900006468BB00878FF2806D0491C2D2805D0BE
:100FA00000244FF0000908E000200CE00124F8E7DD
:100FB00009EB8903491C00EB43090878FF28F7D1A6
:100FC00014B1C9F100008146107800252C46AA46CC
:100FD00029462D2801D02B2804D1521C2D2813D0AE
:100FE000002082468B461078FF280FD04FF0000C6F
:100FF0000A21521CA5FB017804FB018105FB0C11A1
:10100000C5194BEB0104EEE70120EAE70021084691
:101010004FF00000BAF1000F02D000EB8000400852
:10102000C0F38157012F01DD4FF0FF370E9955EACC
:10103000040009EB01080BD04FF0020918F5FA7F04
:1010400016DA4FEACA70002F706008DD012007E051
:101050004FEACA70C6E900B00FB0BDE8F08F0020BB
:101060003060FFF7E7FDC0F800901821084616E051
:10107000B8F5FA7F18DD002F02DAF748784401E06E
:10108000F6487844D0E90010C6E9001040EACA707A
:101090007060FFF7CFFDC0F80090142108460FB034
:1010A000BDE8F04F09F05DB8002108464FF00000A0
:1010B000B8F10001099002DAC7F1000200E03A46F7
:1010C00001DAC8F1000106A8FFF780FE06AB93E83D
:1010D000070003AB83E8070044F23E005BEA04012B
:1010E0000090584604D144F21E012C465D46009102
:1010F000210C0904014306D10099240444EA154453
:101100002D041039009104F07F41014306D100996C
:10111000240244EA15642D020839009104F070415C
:10112000014306D10099240144EA15742D01091FD9
:10113000009104F04041014306D10099A40044EA23
:101140009574AD00891E009104F00041084304D15C
:1011500000986D196441401E00904FF001033A461B
:101160006846B8F1000FCDE9014503A902DD00F0A2
:101170002EFF01E000F001FFBAF1000F04460D461A
:1011800001D084F00044002108464FF00000099986
:1011900040F2FF77484010F00C0F07D124F00040D8
:1011A000284303D0C4F30A50B84212D1FFF742FDDE
:1011B000C0F80090C4F30A50B8420AD1A848784455
:1011C000D0E90010C6E9001004F000410843706047
:1011D00042E7C6E900543FE72DE9FF4F1F464FF0B5
:1011E000000A4FF0FF38454691B0D7E90146CDF8E7
:1011F0003CA0FFF73FFAC0680168405C1090B969F5
:1012000012986D1C8847396A814688470028F6D1B4
:10121000B9F1FF3F0AD0002E24F4D06411DDB9F1FA
:101220002B0F08D0B9F12D0F0BD102E0404615B0BD
:1012300013E744F48064B96912986D1C8847761EE0
:101240008146600504A901D52D2000E02B20002E49
:1012500001F1010B0DF130088DF810003FDDB9F1FF
:10126000690F08D0B9F1490F05D0B9F16E0F02D05E
:10127000B9F14E0F1CD13B4601A8009580E8500201
:10128000DDE912126FF0020008F0D4FFC11CCED1CC
:101290000EE0B96912986D1C884781461398761E36
:1012A00044F4007405600F98401C002E0F9016DD6A
:1012B000B9F1300FEDD0B9F1780F02D0B9F1580F74
:1012C0000DD10F9801280AD13B46CDE90054DDE944
:1012D0001212001F029608F0ABFFC11CA7D1109993
:1012E00089453ED144F0800406E01399681CAAF1B8
:1012F000010A44F400740860B9696D1C1298761EE6
:10130000884730288146F0D02BE01099894505D1D7
:10131000200603D4761E44F0800418E0484603F00B
:101320008CFC08B3761E0DF123018B4544F4007448
:1013300008D2A9F130000BF8010B200607D5AAF15D
:10134000010003E0200602D40AF101008246A00554
:1013500002D51399681C0860B96912986D1C8847FA
:101360008146002ED1DC53E0002E51DDB9F1650F2E
:1013700002D0B9F1450F4BD1A00549D5B9696D1C13
:101380001298761E24F440748847002E81460CDDA6
:101390002B2804D0B9F12D0F07D144F48074B9691A
:1013A00012986D1C8847761E8146E00501D52D21D7
:1013B00000E02B2108F8011BCDF8008021E0761E0B
:1013C0000DF13901884544F400740CD2A9F13000C4
:1013D00010F0FF0088F8000002D10099884509D973
:1013E00008F1010806E0E00501D51E4801E042F2DF
:1013F0000F708246B96912986D1C88478146139810
:101400000560002E04DD484603F017FC0028D6D105
:10141000F96912988847FF2053468BF8000088F836
:10142000000000200A900B9004AA0CA90AA8FFF75C
:10143000ADFDA00502D46FF00100F8E614F0240F12
:1014400012D0E0071CD13868DDE90A12031D3B60A9
:101450000068C0E9001213E0589B00004A9B00009E
:101460000E9A0000F1D8FFFF0AA9684603F074FB4A
:10147000E00705D13868009A011D396000680260F4
:101480002846D4E610B50446AFF300802046BDE8F8
:101490001040FEF789BE002801D000F029B870473F
:1014A00010B5012805D0002103A000F027F8012085
:1014B00010BD09A1F8E7000053494752544D454D6E
:1014C0003A204F7574206F662068656170206D65E5
:1014D0006D6F7279000000003A2048656170206DE0
:1014E000656D6F727920636F7272757074656400D8
:1014F00001491820ABBEFEE72600020070B5054684
:101500000C460A2000E06D1C00F011F835B1287877
:101510000028F8D102E0641C00F009F814B120782A
:101520000028F8D1BDE870400A20AFF3008008B56C
:1015300069468DF800000320ABBE08BD2DE9FF4FC2
:101540001F464FF03C0987B04FF00042DDE9141010
:1015500001F10108DDF858A002EA40500390002094
:1015600005908346054604460490B969461E0898CE
:101570008847AAF1010A0290BAF1000F3BDD0298F8
:101580002E2815D0102100F016FA00282EDB4FF07F
:10159000010B0599014317D0B9F1000F0BDB4A4647
:1015A000C11700F0F5F905430C43A9F1040905E062
:1015B000012004900BE008B145F0010501200590E1
:1015C000049820B9361D02E0049800B1361FB969AD
:1015D000089808F101088847BBF1000FAAF1010A39
:1015E0000290C9D00999C1F80080C5E70298702817
:1015F00008D0502806D0F96908988847BBF1000F39
:1016000014D04FE0002002900120BBF1000F0490A5
:1016100009D0B969089808F101088847AAF10109B9
:10162000B9F1000F07DCF969089888476FF00100ED
:101630000BB0BDE8F08F2B2804D02D280CD14FF033
:10164000FF300490B969089808F101088847A9F1AA
:101650000109B9F1000FE6DD411CE4D00A2100F0D8
:10166000AAF90028DFDB029908F1010801EB8101EA
:1016700000EB41000290B969089888470A2100F000
:101680009AF9099AA9F10109B9F1000FC2F800808D
:1016900001DD0028E7DAF96908988847049902987B
:1016A00000FB016655EA040004D004F04041090043
:1016B00002D006E0039898E0A40044EA9574AD00D7
:1016C000B61E04F00041080002D16D196441761E77
:1016D000159810F0240F03D04FF00B095C4803E07D
:1016E0004FF028096FF07D008246564507DAAAEBD5
:1016F00006018944B9F1410F01DD4FF04109012094
:101700000021A9F1010200F043F9024628400B46EE
:101710002140084301D0012100E00021501E029128
:1017200043F1FF3128402140084301D0012000E06F
:1017300000200299834651EA0B014FD00021084650
:101740004FF00000039900F4400039B100EB800035
:101750004FF4400100EBD07001EA600080150128D1
:1017600002DD4FF0FF3000E013D0401C36D002986D
:1017700060B3BBF1000F0CD14A460120002100F0FC
:1017800007F928402140084301D0012000E0002053
:10179000E0B101204A46002100F0FAF80346401962
:1017A0000A4661412D1A8C4111D3B9F1400F09DD70
:1017B000159810F0240F02D0AAF1340603E0AAF124
:1017C000170600E0761C00254FF0004406E05B1E83
:1017D00042F1FF3220EA030521EA0204CAF10100C6
:1017E000B04206DA1B49039808430190002000909C
:1017F0000EE0039AC4F3D321E80A0A43164940EAEB
:1018000044500A433146CDE90002684603F00AFA23
:10181000159810F0240F0BD01598C00715D1386813
:10182000DDE90012031D3B600068C0E900120CE016
:1018300002A8694603F090F91598C00705D13868E9
:10184000029A011D3960006802604046F0E600001F
:1018500002FCFFFF0000F07F0000F03F2DE9FF4F8A
:1018600092461D4685B04FF00041DDE9124BDDE99F
:1018700014727F1E01EA4B50414940F0FF4940EA93
:101880000108002122F020004928049102D04E28AE
:1018900028D04CE03BA0012607C88DE80700A969C5
:1018A0000698641C88477F1E014606D41DF8060072
:1018B00018B121F0200181420BD0E96906988847D0
:1018C000032E34D0082E32D06FF0010009B0BDE8ED
:1018D000F08F761C032E01D0082EE0D1601CCAF8D0
:1018E0000000DCE7A9690698641C88477F1E2AD49B
:1018F00020F02000412826D1A9690698641C884759
:101900007F1E20D420F020004E281CD1A969069803
:10191000641C88477F1E48F4002849F48009CAF8EF
:10192000004001D4282806D0E969069888475FEA74
:10193000CB7012D022E0A9690698641C88477F1EEC
:1019400001D4002803DAE96906988847BCE729280A
:10195000F1D1641CCAF80040E9E71BF0240F07D05E
:1019600028680499031D2B600068C0E9001805E091
:101970002868021D2A600068C0F800902046A5E78C
:101980000000F07F494E46494E495459000000007E
:10199000B2F120030AD5C2F1200301FA02F120FAC4
:1019A00003F300FA02F041EA0301704700FA03F181
:1019B0004FF0000070473A2800D2303820F0200263
:1019C000412A01D3A2F13700884201D34FF0FF3002
:1019D00070475FEA400C08BF91F0000F4FEA8C237C
:1019E0004FEAC12243EA51514FEA1C5018BF00F59B
:1019F000F0404FEA300018BF41F000415FEA6C5CF4
:101A000000F02980BCF1FF3F08BF40F080407047E4
:101A1000130C06BF12044FF0100C4FF0000C130E05
:101A200004BF12020CF1080C130F04BF12010CF1D9
:101A3000040C930F04BF92000CF1020CD30F04BFEF
:101A400052000CF1010C11464FF00002A0F11F00F2
:101A5000A0EB0C00704711F0004F08BF704731F049
:101A600000413FF4D5AF0B0C06BF09044FF0100C3A
:101A70004FF0000C0B0E04BF09020CF1080C0B0F09
:101A800004BF09010CF1040C8B0F04BF89000CF199
:101A9000020CCB0F04BF49000CF1010CCCF1200368
:101AA000A0EB0C0022FA03F302FA0CF241EA030164
:101AB00000F10100704720F07F4C80EA030023F022
:101AC0007F47ACEB070303F57C5300F0004003F1C4
:101AD000FF032DE980494FEA154B09B44FEA14433F
:101AE00025EA0B4E24EA03480FF2042606EB1327DF
:101AF00049083E785FEA320203FB0667C7F5000734
:101B000007FB06F64FEA54374FEAD64606F10206BF
:101B100007FB066CCCF1005C4FEA1C472CEA074C33
:101B200007FB06F40CFB06F504EB15464FEA961688
:101B300034BF00204FF000404FEAD13706FB07FCCE
:101B40004FEA1C4C0CFB0BF7D21B03FB0CF761EBB1
:101B500007010CFB0EF7B0EB074072EB17420CFBD2
:101B600008F734BFA2EB0742B2EB074261EB174123
:101B70004FEA0C444FEA910706FB07FC4FEA1C4C66
:101B80000CFB0BF7B0EBC74072EB573203FB0CF7C3
:101B900034BFA2EBC742B2EBC74261EB57310CFB3B
:101BA0000EF7B0EBC70072EB57720CFB08F734BFAF
:101BB000A2EBC702B2EBC70261EB5771039F4FEA7A
:101BC000816141EA921104EBCC044FEAD1374FEA2C
:101BD000826206FB07FC42EA90124FEA80604FEAFD
:101BE0001C4C0CFB0BF7D21B03FB0CF761EB070142
:101BF0000CFB0EF7B0EB074072EB17420CFB08F73B
:101C000034BFA2EB0742B2EB074261EB17414FEA48
:101C10008C554FEA910704EB9C2406FB07FC4FEA26
:101C20001C4C0CFB0BF7B0EBC74072EB573203FBBD
:101C30000CF734BFA2EBC742B2EBC74261EB57319E
:101C40000CFB0EF7B0EBC70072EB57720CFB08F7FA
:101C500034BFA2EBC702B2EBC70261EB577115EBC1
:101C60004C254FEA816141EA92114FEA82624FEAC4
:101C7000D13742EA901206FB07FC44F100044FEA18
:101C800080604FEA1C4C0CFB0BF7D21B03FB0CF7DC
:101C900061EB07010CFB0EF7B0EB074072EB17424C
:101CA0000CFB08F734BFA2EB0742B2EB074261EB33
:101CB000174115EB1C154FEA813141EA92414FEA79
:101CC000823242EA90424FEA80304FEA0C7644F189
:101CD000000448EA03434EEA0B484FF0000EB2EB13
:101CE000080C71EB030724BF624639464EEB0E0E1B
:101CF0004FF0000B0018524149414BEB0B0BB2EB7C
:101D0000080C71EB03077BF1000B24BF62463946D8
:101D10004EEB0E0E4FF0000B0018524149414BEBB9
:101D20000B0BB2EB080C71EB03077BF1000B24BF2C
:101D3000624639464EEB0E0E51EA020718BF46F0D6
:101D4000010616EB0E7655F1000254F1000103D5A1
:101D5000BDE88901BDE80088BDE88901BDE800480B
:101D6000B619524141EB0101A3F101037047808094
:101D70007F7E7D7C7B7A79787776767574737271E5
:101D800071706F6E6E6D6C6C6B6A6A69686867669D
:101D900066656464636362616160605F5F5E5E5D2F
:101DA0005D5C5C5B5B5A5A595958585757565655A3
:101DB00055555454535352525251515050504F4F05
:101DC0004F4E4E4D4D4D4C4C4C4B4B4B4A4A4A4955
:101DD0004949484848474747474646464545454498
:101DE0004444444343434342424242414141000050
:101DF00046EA0646A3F570534FEA164646EA4256AF
:101E00004FEAD22242EA415210B54FEAD121A3F162
:101E1000010300F02FF820F0004000F1020C00F068
:101E2000004701EB00501146BCF5006F40EA070087
:101E300000D210BDBAF1000F0AD01CB503B44FF0A8
:101E400004004FF004014FF000000FBCBDE810404B
:101E50004FF00001BBF1010FB9BF04484FF0FF3153
:101E60000348002140EA070010BD00BFFFFFEF7FDD
:101E70000000F07F002B9C4630D477002BD01CB59F
:101E80004FEA370703B44FF010004FF01001BAF1DA
:101E9000000F06D0BCF1000FDCBF40F0080040F09E
:101EA00008014FF000000FBCBDE810400BF1010B22
:101EB000BBF1010F08BF5FEA170722BF12F1010251
:101EC00011F101014FF0004143F1000300F0004027
:101ED00043EA00007047F9D35708D0E746EA0646C0
:101EE00013F1400F4FEA16461FDD13F1200FDFBF3D
:101EF00016430A46002120335B42BED0C3F12007BF
:101F000046EA064602FA07F74FEA164646EA070689
:101F1000C3F1200722FA03F201FA07F721FA03F1CD
:101F20004FF0000342EA0702A7E746EA020646EA44
:101F300006464FEA164646EA0106BCBF46EA064692
:101F4000360C4FF000034FF000024FF0000194E711
:101F50002DE9804C9A46934670B491E8380007C842
:101F600031EA400C48BF34EA430C03D5FFF7A3FD28
:101F7000FFF780FFF0BCBDE8008C2DE9804C9A464D
:101F8000934670B491E8380007C831EA400C48BF66
:101F900034EA430C03D5FFF78EFDFFF729FFF0BCB1
:101FA000BDE8008C2DE9804C9A46934670B491E8C8
:101FB000380007C810F0804F08BF13F0804F03D1DE
:101FC00000F01AF8FFF756FFF0BCBDE8008C2DE9D1
:101FD000804C9A46934670B491E8380007C810F0D8
:101FE000804F08BF13F0804F03D100F005F8FFF7D2
:101FF000FFFEF0BCBDE8008C20F07F4780EA0300C4
:1020000023F07F4C07EB0C03A3F57C5300F000405A
:10201000A3F1FE0392F0000F00F0B38095F0000FE3
:1020200000F077802DE901494FEA11404FEA14464C
:1020300021EA004800FB06FC24EA064708FB06F6F6
:1020400007FB08F800FB07F718EB06484CEB164CAB
:102050004FEA124B18EB07484FEA15464CEB174076
:1020600022EA0B4E0BFB06FC25EA06470EFB06F6A2
:1020700007FB0EFE0BFB07F71EEB064E4CEB164C58
:102080004FF000061EEB074E4CEB174B18EB0B08FE
:1020900040F1000018EB0E0B58EB000840F1000077
:1020A0008F1A4FF000013CBFC943661B14BFB5EB4C
:1020B000040C00213CBFC943F61B4FEA17444EEA0B
:1020C0008E0E27EA04454FEA1C4704FB07622CEA00
:1020D000074C05FB07F70CFB05F604FB0CFC16EBA5
:1020E000074642EB174216EB0C4642EB1C421BEB39
:1020F000060658EB0202414146EA9E0601D5BDE8BC
:102100000189B619524141EB0101A3F10103BDE878
:1021100001894FEA14454FEA114724EA054621EAAE
:10212000074C05FB07F406FB07F70CFB06F105FB64
:102130000CFC11EB074144EB17444FEA124711EB3B
:102140000C4144EB1C4422EA074C05FB07F206FB5A
:1021500007F70CFB06F605FB0CFC16EB074642EBFB
:10216000174216EB0C4642EB1C456A1854F100016D
:1021700048BF7047B619524141EB0101A3F1010379
:10218000704795F0000F37D04FEA11424FEA1447DD
:1021900021EA024624EA074C02FB07F106FB07F797
:1021A0000CFB06F402FB0CFC14EB074441EB17415B
:1021B0004FEA154714EB0C4441EB1C4125EA074C50
:1021C00002FB07F506FB07F70CFB06F602FB0CFC0F
:1021D00016EB074645EB174516EB0C4645EB1C4244
:1021E000121951F1000148BF7047B619524141EB35
:1021F0000101A3F1010370474FEA14454FEA11476B
:1022000024EA054621EA074C05FB07F106FB07F720
:102210000CFB06F24FF0000605FB0CFC12EB07422C
:1022200041EB174112EB0C4251EB1C4148BF704788
:10223000921841EB0101A3F101037047FEE77047DB
:1022400072B6FEE710B590F821100022022905D0E1
:102250000421816380F82020012010BD01680B68F3
:1022600023F00E030B6001680B6823F001030B6081
:1022700090F84030C46B012101FA03F3636080F8E9
:10228000211080F82020104610BD000010B590F8F5
:1022900021100024022903D00421816301243DE0A0
:1022A00001680A6822F00E020A6001680A6822F0DA
:1022B00001020A601A4A0168914201D1012121E01C
:1022C000174A1432914201D110211BE0144A2832DE
:1022D000914201D1891515E0114A3C32914201D158
:1022E00089140FE00E4A5032914202D14FF48031EE
:1022F00008E00B4A6432914202D14FF4801101E0B0
:102300004FF08071064A083A5160012180F821108F
:10231000002180F82010416B01B18847204610BD94
:102320000800024070B5044600F010F90546601C34
:1023300002D004480078044400F008F9401BA04291
:10234000FAD370BD280000202DE9F84FDFF8B891CE
:102350000024A9F1040B23460F2709F1040AABF16D
:10236000040EC9E00125A5402A40AA427DD1674E4E
:10237000D1F804C0ACEB0608B44532D014DCBCF193
:10238000030F3AD009DCBCF1000F2AD0BCF1010FD9
:102390001CD0BCF1020F31D11DE0BCF1110F17D0E0
:1023A000BCF1120F2AD119E0B8F5881F19D006DC4C
:1023B000B8F5803F15D0B8F5801F1FD111E0B8F5F2
:1023C000001F0ED0B8F5041F18D10AE0CB6815E045
:1023D000CB681B1D12E0CB6808330FE0CB680C33D1
:1023E0000CE08B682BB1012B4FF0080303D0456143
:1023F00004E0042302E0056100E00023FF2A01D885
:10240000064601E000F104064FEA840501D9A5F172
:102410002005D6F8008007FA05FC28EA0C0803FA24
:1024200005F548EA0508C6F800804D68ED0062D55C
:10243000374DAE6946F00106AE61AD6924F0030682
:1024400005F001050095334D06EB050CDCF808504E
:10245000A607360F07FA06F825EA0805DFF8B88060
:10246000404503D14FF0000817E044E0DFF8AC80AE
:10247000404502D14FF001080FE0DFF8A48040454D
:1024800002D14FF0020808E0DFF89880404502D101
:102490004FF0030801E04FF0040808FA06F848EA94
:1024A0000508CCF808804D68D9F80060ED024D466B
:1024B00001D5164300E096432E604D68DAF80060BF
:1024C000AD02554601D5164300E096432E604D6897
:1024D000DBF80060AD035D4601D5164300E096438E
:1024E0002E604D68DEF80060ED03754601D5164399
:1024F00000E096432E60641C0D682A46E5407FF498
:1025000031AFBDE8F88F0000080401400000111051
:10251000001002400000014000080140000C014092
:1025200000100140001401408068084000D00120E4
:102530007047C26821EA02030A4043EA024101618E
:1025400070470AB1016170470904FBE701488068E0
:10255000704700002800002002488168027811447A
:102560008160704728000020074810B5016841F0DD
:1025700010010160032000F075F80F2000F006F84C
:1025800000F024F8002010BD0020024070B50D4D71
:1025900004464FF47A712878B1FBF0F00A490968D3
:1025A000B1FBF0F000F027FC48B9102C07D2002254
:1025B0002146501E00F036F800206C6070BD0120EE
:1025C00070BD000028000020340000200C4808B531
:1025D000816941F001018161816901F0010100918E
:1025E000C16941F08051C161C06900F08050009024
:1025F0000448416821F0E06141F00071416008BD8C
:102600000010024000000140002809DB00F01F021A
:10261000012191404009800000F1E020C0F8001144
:1026200070470000F0B40E4B1B680C46C3F3022346
:10263000C3F10705042D00D90425191D072901D26E
:10264000002300E0DB1E012606FA05F1491E2140A9
:1026500099409E40761E16403143F0BC01F033BCD9
:102660000CED00E0064900F0070208684FF6FF0392
:10267000184040EA0220034A1043086070470000F7
:102680000CED00E00000FA052DE9F0470F460500CB
:1026900061D0434E306800F00700B84209D230687C
:1026A00020F0070038433060306800F00700B8427F
:1026B00051D128683B4C810712D5400703D560688B
:1026C00040F4E06060602878000703D5606840F45B
:1026D000605060606068A96820F0F00008436060A6
:1026E0002878C00728D06868012810D021680228FF
:1026F00010D0890700292EDA616821F00301014317
:102700006160FFF723FF804641F288390DE02168C0
:102710008903EFE78901EDE7FFF718FFA0EB080158
:10272000494502D90320BDE8F0876068696800F078
:102730000C00B0EB810FEFD1306800F00700B84219
:102740000BD9306820F0070038433060306800F063
:102750000700B84201D00120E5E72878400705D5F9
:102760006068E96820F4E06008436060287800074A
:1027700006D56068296920F4605040EAC1006060B5
:1027800000F038F86168084AC1F30311515CC84091
:102790000649086006480068FFF7F8FE0020C2E717
:1027A00000200240001002405EA600083400002015
:1027B0002C0000200448054900684968044AC1F318
:1027C0000221515CC84070473400002000100240D4
:1027D0006EA600080448054900684968044AC1F328
:1027E000C221515CC84070473400002000100240F4
:1027F0006EA600080E4A51680E4801F00C03042B27
:1028000011D0082B0FD10C48C1F38343C903C05C1E
:102810000AD55168084AC1F34041921E515C054AED
:102820005043B0FBF1F07047044948437047000043
:102830000010024000127A004EA6000800093D0078
:102840002DE9F84F040070D02078C04DC00749D062
:102850006868C0F38100012807D06868C0F3810070
:10286000022809D16868C00306D52868800339D5D5
:1028700060680028E7D035E06068B0F5803F0BD095
:1028800010B1B0F5A02F11D0286820F48030286056
:10289000286820F4802002E0286840F48030286016
:1028A000606890B1FFF752FE06460AE0286840F4DF
:1028B00080202860F0E700BFFFF748FE801B6428F7
:1028C00073D828688003F7D50CE0FFF73FFE064673
:1028D00005E000BFFFF73AFE801B6428F0D82868A7
:1028E0008003F7D420789A4E80074FF001094FF00B
:1028F000000839D5686810F00C0F07D06868C0F37D
:102900008100022809D16868C00306D428688007BE
:1029100014D52069012808D110E02069B0B1C6F8AB
:102920000090FFF713FE074605E00AE1FFF70EFEF1
:10293000C01B0228C4D828688007F7D528686169B9
:1029400020F0F80040EAC10028600DE0C6F80080E1
:10295000FFF7FCFD074604E0FFF7F8FDC01B022867
:1029600023D828688007F7D4207800072CD5794829
:10297000A169D9B1C0F80090FFF7E8FD074604E06F
:10298000FFF7E4FDC01B02280FD8686A8007F7D55F
:1029900071484FF4FA510068B0FBF1F0009000BFAD
:1029A0000098411E0091FAD20EE080E0C0F800804D
:1029B000FFF7CCFD074604E0FFF7C8FDC01B022867
:1029C00075D8686A8007F7D42078400760D5E86931
:1029D0000027C00008D4E86940F08050E861E86949
:1029E000012700F0805000905C480168C90513D4AD
:1029F0000168834641F480710160FFF7A7FD8246BC
:102A000006E000BFFFF7A2FDA0EB0A0064284ED845
:102A1000DBF80000C005F5D5E06801280AD008B150
:102A2000052813D0286A20F001002862286A20F0C7
:102A3000040002E0286A40F001002862E06841F2E8
:102A4000883B98B1FFF782FD82460BE0286A40F090
:102A500004002862EEE700BFFFF778FDA0EB0A0153
:102A600059455AD8286A8007F6D50CE0FFF76EFD65
:102A7000824605E0FFF76AFDA0EB0A0159454CD8F4
:102A8000286A8007F6D41FB1E86920F08050E86119
:102A9000E06988B36968C1F38101022944D0022842
:102AA000C6F8608004D0FFF751FD044638E034E0FA
:102AB000FFF74CFD074604E0FFF748FDC01B022866
:102AC0002BD828688001F7D4206AB0F5803F05D163
:102AD0006868A16820F4003008436860D4E9080100
:102AE0000843696821F4741108436860C6F860906F
:102AF000FFF72CFD044606E025E000BFFFF726FDAA
:102B0000001B022809D828688001F7D51BE000BF08
:102B1000FFF71CFD001B022802D90320BDE8F88F37
:102B200028688001F4D40EE00128F7D06868226A92
:102B300000F48031914204D1616A00F4701088423F
:102B400001D00120EAE70020E8E700000010024081
:102B500000004242800442423400002000700040E5
:102B600070B5040009D0606A002540B12561656137
:102B7000A56294F8510040B10CE0012070BD60687E
:102B8000B0F5827FF4D0E561F2E784F8505020463A
:102B900000F040F8022084F851002068016821F01C
:102BA00040010160A088218900F4827001F4044191
:102BB0000843A18901F400610843217C01F002016E
:102BC0000843217D01F001010843218B01F40071CC
:102BD0000843217F01F03801084394F8201001F0E8
:102BE00080010843218D01F40051084321680860E9
:102BF000A069042101EA1040216848602068C16989
:102C000021F40061C1616565012084F85100002054
:102C100070BD000030B585B000240094019402948A
:102C2000039400681549884225D11548C16941F4CB
:102C30008041C161C16901F480410491816941F021
:102C40000801816180690F4D00F0080004904FF485
:102C500020400090022001900320039069462846FE
:102C6000FFF772FB4FF48040CDE900046946284627
:102C70000294FFF769FB05B030BD0000003800404A
:102C800000100240000C01402DE9F84F044690F876
:102C900050000026984615468A4601280CD0012788
:102CA00084F85070FFF752FC814694F85100B34607
:102CB000012804D002269AE00220BDE8F88FBAF17C
:102CC000000F6FD0002D6DD0032084F85100C4F8A0
:102CD00054B0C4F830A0A586E586C4F838B0A4F88E
:102CE0003CB0A4F83EB0C4F844B0C4F840B0A0680A
:102CF000B0F5004F09D12068016821F04001016062
:102D00002068016841F4804101602068016849063B
:102D100003D4016841F040010160E068B0F5006F44
:102D2000606803D058B3012D29D049E008B1012DC6
:102D30001FD1206B21680088C86006E02068816888
:102D4000890709D5216B0988C160206B801C20632D
:102D5000E08E401EE0860CE0FFF7F8FBA0EB0901D7
:102D6000414503D3B8F1FF3F03D006E0B8F1000FAF
:102D700003D0E08E0028E1D125E0032635E0206B6A
:102D800021680078087306E02068816889070AD501
:102D9000216B09780173206B401C2063E08E401E7C
:102DA000E0860DE01FE0FFF7D1FBA0EB09014145F4
:102DB00003D3B8F1FF3F03D0DFE7B8F1000FDCD059
:102DC000E08E0028E0D14A464146204600F0FDFD55
:102DD00008B120206065A06818B92068C1688068C3
:102DE0000090606D08B1012601E084F8517084F80C
:102DF00050B0304661E710B5401EB0F1807F01D37E
:102E0000012010BD4FF0E02460610F21601701F038
:102E10005AF80020A06107202061002010BD7047F3
:102E20007047000070B590F83C20012A26D001249C
:102E300080F83C40022280F83D2003685A689D6873
:102E400022F070060A6832435A600D4B02689A42BB
:102E500008D0B2F1804F05D00A4B9A4202D00A4BFB
:102E60009A4204D1496825F080031943916080F8A3
:102E70003D40002180F83C10084670BD022070BD26
:102E8000002C0140000400400008004010B5040080
:102E900003D094F83D0010B107E0012010BD0020E0
:102EA00084F83C00204600F01FF8022084F83D0022
:102EB000211D206800F036FE012084F8460084F8C9
:102EC0003E0084F83F0084F8400084F8410084F814
:102ED000420084F8430084F8440084F8450084F8F4
:102EE0003D00002010BD000008B501681448B1F194
:102EF000804F14D0134A914220D1C16941F00201A0
:102F0000C161C069002200F00200009011461D203E
:102F1000FFF788FB1D20BDE80840FFF775BBC169BE
:102F200041F00101C161C069002200F00100009080
:102F300011461C20FFF776FB1C20ECE708BD0000C3
:102F4000001002400004004090F83D10012901D01B
:102F500001207047022180F83D100168CA6842F0E4
:102F60000102CA6000680B49884208D0B0F1804F66
:102F700005D00949884202D00849884204D18168B5
:102F800001F00701062903D0016841F00101016049
:102F900000207047002C0140000400400008004061
:102FA00070B5044690F83C000025012817D0012692
:102FB00084F83C60022084F83D002068826822F09A
:102FC000770222F47F4282600868502838D00DDCF6
:102FD00020284FD005DC90B3102811D14AE0022000
:102FE00070BD302846D040280AD13BE060282FD061
:102FF00070280DD0B0F5805F03D0B0F5005F12D01F
:10300000012584F83D60002084F83C00284670BD0E
:10301000CB68D1E90121206800F0BAFD2068816801
:1030200041F0770109E0CB68D1E90121206800F087
:10303000AFFD2068816841F480418160E1E719E0DB
:10304000CA684968206800F0B5FD5021206806E094
:10305000CA684968206800F0BEFD6021206800F061
:10306000A1FDCEE7CA684968206800F0A3FD4021B1
:103070002068F4E7226801461046F0E7704770B513
:103080000446006801694FF00005C943890715D45B
:10309000C168C943890711D4E91E01610120207765
:1030A000206880698007204602D0FFF7E7FF04E030
:1030B00000F098F8204600F096F82577206801691E
:1030C000C943490717D4C168C943490713D46FF0EE
:1030D00004010161022020772068806910F4407F9C
:1030E000204602D0FFF7CAFF04E000F07BF820463C
:1030F00000F079F8257720680169C943090716D4DB
:10310000C168C943090712D46FF0080101610420A6
:1031100020772068C0698007204602D0FFF7AEFF05
:1031200004E000F05FF8204600F05DF825772068A5
:103130000169C943C90617D4C168C943C90613D474
:103140006FF010010161082020772068C06910F439
:10315000407F204602D0FFF791FF04E000F042F8E4
:10316000204600F040F8257720680169C943C90767
:1031700008D1C168C943C90704D1891E016120462D
:1031800000F032F820680169C943090609D4C16812
:10319000C943090605D46FF0800101612046FFF79D
:1031A0003EFE20680169C943490609D4C168C94384
:1031B000490605D46FF040010161204600F03AF85D
:1031C00020680169C94389060BD4C168C9438906CF
:1031D00007D46FF0200101612046BDE87040FFF781
:1031E0001FBE70BD704770470D4988420BD10D4915
:1031F00091F8D620012A01D012B104E0002200E0AB
:10320000012281F8D6200849884207D10748006882
:10321000012803D106480168491C0160704700007D
:103220006403002030020020AC03002010000020C6
:10323000140000207047704770470000F8B501681F
:1032400004460868CA684B6910F00F0F4FF000057C
:1032500059D003F0010602F49077374365D0C107D7
:1032600005D0D10503D5616C41F0010161644107CE
:1032700005D5D90703D0616C41F002016164810773
:1032800005D5D90703D0616C41F0040161640107E1
:1032900007D502F02001314303D0616C41F00801F1
:1032A0006164616C00293AD0800604D5900602D58D
:1032B000204600F0D1FC20684069616CC0F38010AA
:1032C000090700D460B3204600F09FFC20684069E5
:1032D000400621D52068143050E8001F21F040013D
:1032E00040E80012002AF5D1E06BA8B16D494163B6
:1032F000E06BFEF7CBFF002811D0E06B416B01B013
:10330000BDE8F040084783060FD593060DD520464B
:10331000BDE8F84000F0A0BC2046FFF78DFFF8BDE7
:103320002046FFF789FF6564F8BD266B2023012E38
:103330007CD1C6067AD5D60678D50868486800904C
:1033400048694FF00206400640D5E16B08684068C6
:103350000004000CE8D0A28D8242E5D9E08588699E
:1033600020282DD020680C3050E8001F21F48071F7
:1033700040E80012002AF5D12068143050E8001F00
:1033800021F0010140E80012002AF5D12068143034
:1033900050E8001F21F0400140E80012002AF5D15A
:1033A00084F84230256320680C3050E8001F21F07B
:1033B000100140E80012002AF5D1E06BFEF742FF51
:1033C0006663A08DE18D401A81B22AE0A08DE18D67
:1033D000401A81B2E08D0028A6D00029A4D022682E
:1033E0000C3252E8000F20F4907042E80007002FE2
:1033F000F5D12068143050E8002F22F0010240E897
:103400000027002FF5D184F84230256320680C3066
:1034100050E8002F22F0100240E80023002BF5D1E5
:1034200066632046FFF707FFF8BDFFE705062BD5CB
:10343000150629D594F841002128F5D1A068B0F5EA
:10344000805F01D12069B0B1206A411C21622168EE
:1034500000784860E08C401E0004000CE084E3D15A
:103460002068C16821F08001C1602068C16841F016
:103470004001C160D8E7206A0088C0F308004860B6
:10348000206A801C2062E5E74006CDD55006CBD5EA
:10349000CA68204622F04002CA6084F8413000F039
:1034A00012F9C1E7FB3B000870B5040004D094F8A2
:1034B0004100002510B106E0012070BD84F84050A5
:1034C000204600F023F8242084F841002068C168D9
:1034D00021F40051C160204600F020FC2068016901
:1034E00021F4904101612068416921F02A01416184
:1034F0002068C16841F40051C1606564202084F8EF
:10350000410084F842006563002070BD70B586B04C
:103510000024009401940294039403682E482D4ED5
:10352000022103220515B34226D1836943F4804367
:103530008361836903F480430493836943F0040344
:1035400083618069254E00F0040004900802CDE9F3
:103550000001039269463046FEF7F6FECDE90054BD
:10356000694630460294FEF7EFFE00221146252000
:10357000FFF758F8252028E0194EB34227D1C36938
:1035800043F48023C361C36903F4802304938369F4
:1035900043F0080383618069CDE9005100F0080021
:1035A000CDE903200F4D69462846FEF7CDFEE8140D
:1035B000CDE90004694628460294FEF7C5FE0022C4
:1035C00002212720FFF72EF82720FFF71DF806B06D
:1035D00070BD0000003801400010024000080140AA
:1035E00000480040000C014090F84230202B01D0F0
:1035F0000220704721B11AB10023036300F0EABB37
:1036000001207047074910B588420AD10648007862
:1036100004F0B8FFBDE81040012203490148FFF75C
:10362000E3BF10BDF4030020260000202DE9F8437D
:10363000044690F841001F4616460D46202802D049
:103640000220BDE8F8837DB176B1002060642120BE
:1036500084F84100FEF77AFFA6848046E684A068DD
:10366000B0F5805F02D003E00120EAE7206910B1E5
:103670002E4600250EE000260CE08021204600F0BA
:10368000C4FBA0B9AEB116F8010B21684860E08C0C
:10369000401EE084E08C43464FF000020097002873
:1036A000EBD14FF04001204600F0AFFB30B10320DA
:1036B000C7E735F8020BC0F30800E6E7202084F8DE
:1036C00041000020BDE77047FEE7000070B5124CD6
:1036D000AA20642120706070FF2084F8D90084F84B
:1036E000DA00A01CFCF74BFF002584F8665084F834
:1036F000675084F86850C4F8695004F16D00642183
:10370000B834FCF73CFF6576A576257765770348E6
:10371000A577E577057070BD300200200400002019
:1037200073B508B1012200E000220C4C8021206812
:10373000FEF707FF4FF48055002229462068FEF768
:1037400000FF6423012201A90548FFF79DFA012229
:1037500029462068FEF7F5FE7CBD00000000002031
:103760000C0300202DE9F04786B000243048009477
:10377000019402940394816941F01001816181698F
:1037800001F010010491816941F02001816181699A
:1037900001F020010491816941F004018161816996
:1037A00001F004010491816941F00801816180699F
:1037B000012200F00800DFF87C80550304902946C0
:1037C0004046FEF7BEFEDFF8709000220F2148460B
:1037D000FEF7B7FEDFF864A04FF49C57002239468D
:1037E0005046FEF7AEFE0095032601250396CDE96F
:1037F000015469464046FEF7A7FD0F20CDE90005BC
:10380000CDE9024669464846FEF79EFDF0208DE868
:10381000310069464846FEF797FD00970396CDE9CB
:10382000015469465046FEF78FFD06B0BDE8F087AB
:10383000001002400010014000080140000C01404F
:103840000F4810B50D4901604FF4827141600021AD
:103850008160C1604FF400720161C0E90512C1616D
:103860000162416281620A21C162FFF779F9002891
:1038700003D0BDE81040FEF7E3BC10BD00380040A7
:103880000C03002010B586B0002417480094019462
:103890000294039404944FF080410594016041F632
:1038A0003F71C0E9011442F22731C0E90314846179
:1038B000FFF7ECFA08B1FEF7C3FC4FF4805000901C
:1038C00069460948FFF76CFB08B1FEF7B9FC0494A0
:1038D00004A905480594FFF7A5FA002801D0FEF7D2
:1038E000AFFC06B010BD00006403002010B586B028
:1038F00000241748009401940294039404941349FB
:103900000594016041F61F41C0E901143121C0E96D
:1039100003148461FFF7BAFA08B1FEF791FC4FF483
:103920008050009069460A48FFF73AFB08B1FEF75D
:1039300087FC049404A906480594FFF773FA00284D
:1039400001D0FEF77DFC06B010BD00000004004071
:10395000AC0300200C4810B50A4901604FF4E13176
:103960004160002181600C22C160C0E904128161C4
:10397000C161FFF799FD002803D0BDE81040FEF7B4
:103980005FBC10BD00380140F40300200C4810B5A6
:103990000A4901604FF4E1314160002181600C224D
:1039A000C160C0E904128161C161FFF77DFD00289B
:1039B00003D0BDE81040FEF743BC10BD00480040F6
:1039C0003C040020FEE7FEE7704738B50B46009246
:1039D00004460022802100F009F8002804D0606D20
:1039E00040F020006065032038BD00002DE9F84359
:1039F0001E46914688460446089DFEF7A7FD401BDB
:103A0000351AFEF7A3FD074625480068C0F3CB3002
:103A1000684338E0701C37D0FEF798FDC01BA84201
:103A200003D215B1009860B32CE02068416821F002
:103A3000E00141606068B0F5827F0BD1A068B0F50D
:103A4000004F02D0B0F5806F04D12068016821F0EA
:103A500040010160A06AB0F5005F09D120680168EB
:103A600021F4005101602068016841F400510160B7
:103A7000012084F85100002084F850000320BDE8A4
:103A8000F8830025401E00902068816838EA010014
:103A900004D000214945BDD10020F0E70121F9E71C
:103AA000340000207047FEF757BD30B58FB0282195
:103AB0006846FCF786FD14210AA8FCF782FD012167
:103AC0000804CDE900100024029402250491CDE9F8
:103AD00007504FF4E01009906846FEF7B1FE08B1B8
:103AE00072B6FEE70F20CDE90A054FF48060CDE9FC
:103AF0000C4002210AA80E94FEF7C6FD002801D052
:103B000072B6FEE70FB030BD704700000148FFF706
:103B1000B6BA0000640300200148FFF7B0BA000005
:103B2000AC030020F0B50268164B174C174D4FF050
:103B30008047984205D0B84203D0A04201D0A842A5
:103B400003D122F070064A683243984205D0B84249
:103B500003D0A04201D0A84203D122F44074CA6825
:103B600022434C6922F08002224302608A68C262CA
:103B70000A688262984201D10969016301214161A9
:103B8000F0BD0000002C014000040040000800408F
:103B900010B5846842EA032224F47F440A43224396
:103BA000826010BD826822F070020A4342F0070171
:103BB0008160704710B5036A046A24F0010404624E
:103BC000846924F0F00444EA021423F00A020A4350
:103BD0008461026210BD10B5036A046A24F0100407
:103BE0000462846923F0A00324F4704444EA02329E
:103BF00043EA01118261016210BD10B5406A0021E3
:103C0000C185C184FFF718FB10BD01680C3151E874
:103C1000002F22F4907241E80023002BF5D10168B7
:103C2000143151E8002F22F0010241E80023002B5B
:103C3000F5D1016B012909D101680C3151E8002F40
:103C400022F0100241E80023002BF5D1202180F85A
:103C5000421000210163704708B590F842102229F4
:103C600001D0022008BD82684FF480539A4201D1EE
:103C7000016921B1816A9A421BD04AB10AE0026807
:103C8000816A5268C2F308020A80816A891C08E0CE
:103C9000026972B10268526802F07F020A70816A9A
:103CA000491C8162C18D491E0904090CC18503D0DC
:103CB0001BE002685268F1E70168CA6822F020023E
:103CC000CA600168CA6822F48072CA6001684A69E1
:103CD00022F001024A61202180F842100021416354
:103CE000026B012A03D0FFF78DFC002008BD0163A1
:103CF00001680C3151E8002F22F0100241E8002346
:103D0000002BF5D101680A68D20602D50A68496815
:103D10000091818DFFF78FFAE7E7000070B5044648
:103D200000680169E26821F4405111430161216991
:103D3000A0680843616908432168CA6841F20C63BE
:103D40009A430243CA6020684169A26921F4407124
:103D5000114341611E492068884202D1FEF73AFDB5
:103D600001E0FEF727FD00EBC00101EB00126068E7
:103D700064218000B2FBF0F3B3FBF1F36FF018069F
:103D80007343B2FBF0F5B2FBF0F605EB830532238B
:103D900003EB0515B5FBF1F5B6FBF1F605F0F00503
:103DA00005EB0615B2FBF0F6B2FBF0F0B0FBF1F05C
:103DB0006FF01802504306EB800003EB0010B0FBDD
:103DC000F1F0216800F00F002844886070BD000009
:103DD0000038014081628285C28500214164222130
:103DE00080F84210016921B10168CA6842F480720A
:103DF000CA6001684A6942F001024A610068C1680C
:103E000041F02001C160002070472DE9F041984643
:103E100017460E460446069D27E0681C25D02DB1A6
:103E2000FEF794FBA0EB0800A8421ED920680C30D6
:103E300050E8001F21F4D07140E80012002AF5D1AB
:103E40002068143050E8001F21F0010140E8001202
:103E5000002AF5D1202084F8410084F84200002097
:103E600084F840000320BDE8F0812068006836EA4D
:103E7000000004D00020B842CFD00020F3E701209A
:103E8000F9E700000148FFF7D9B90000F40300206A
:103E90000148FFF7D3B900003C040020FEE74900C9
:103EA00050EAC12018BF04204A0D18BF40F001009D
:103EB00040F2FF72B2EB515F08BF40F002000128F0
:103EC00008BF052070470907090E002804DB00F130
:103ED000E02080F80014704700F00F0000F1E020AF
:103EE00080F8141D704700002DE9F74F144694B078
:103EF0000021C4E902111599079121F00045C94933
:103F00008D4206DC1599C4E9000117B00020BDE818
:103F1000F08FC549DFF814A3A9423CDD0799C44ED0
:103F20000029C44FC44A1599534619DD05F0DEFE39
:103F3000554506D0C14AC24B05F0D8FEC4E9000180
:103F40000AE04FF0D352BE4B05F0D0FE32463B465E
:103F500005F0CCFEC4E9000117B00120BDE8F08FE8
:103F600005F0E2F8554506D0B44AB54B05F0DCF84B
:103F7000C4E900010AE04FF0D352B14B05F0D4F888
:103F800032463B4605F0D0F8C4E9000117B04FF0C7
:103F9000FF30BDE8F08FAB49A942159978DB21F0DD
:103FA000004183468846A84AA84B05F0D1FB002271
:103FB000A74B05F0B9F805F007FB099005F061FB88
:103FC00006460F469C4A534605F0C2FB43465A46F6
:103FD00005F09AFD80468A46984A994B3046394604
:103FE00005F0B6FB2A0D01250B924246534605F01B
:103FF0008BFD032DC4E9000139D00B98C1F30A51A0
:10400000401A05EB45111139814230DA9148C34617
:10401000784400EB0510CDF80CA00C90D0E90023FB
:104020003046394605F094FB02460B460491069053
:104030005846039905F05AFE80468A4602460B46CA
:104040005846039905F052FE049B069A05F04EFE71
:1040500083460C9803913946D0E90223304605F097
:1040600077FB5A46039B05F041FE6D1CBDE70798A0
:104070000028A2BF099817B0BDE8F08F616881F0F1
:1040800000416160099817B04042BDE8F08FFFE73A
:1040900084461598C1F31301C0F30A50A0F2F5301D
:1040A0004FEA601800F01F06C6F1200013900020B0
:1040B0000690079041F4801E05206D4676B1664A51
:1040C00008EB00017A4452F8213002EB8101B34041
:1040D0004A68139922FA01F1194305E05F4908EB98
:1040E0000002794451F82210A1FB0E27A1FB0C130A
:1040F0001A449A4234BF0123002303EB070A05EB5D
:104100008003D3E901B70F448F4234BF012100215E
:1041100093448B4411B1934502D903E0934501D2F6
:10412000012100E00021C3E901B7514445F8201006
:10413000011EA0F10100C1DC0298059F00F10050B2
:10414000800F12900298DDE90356800005F099FA7D
:10415000834628460D9105F0ABFA6FF01D0206F07C
:1041600037F8CDE90E01304605F0A2FA6FF03D02B6
:1041700006F02EF880468A46384605F099FA6FF028
:104180005D0206F025F8074642465346119104F0B9
:10419000CBFFDDE90E2304F0C7FF5A460D9B04F068
:1041A000C3FF00250E465A4628460D9B05F09EFD8E
:1041B000DDE90E2305F09AFD4246534605F096FDD3
:1041C0003A46119B05F0A0FCDFF898A0244A53461C
:1041D00005F0BEFA07468846234A244B3146284656
:1041E00005F0B6FA3A46434604F09EFF0746884675
:1041F0004FF0A84253463146284605F0A9FA3A4600
:10420000434604F091FF159A12F0004F04D0129A21
:1042100081F0004152421292C4E90001129817B095
:10422000BDE8F08FFB21E93F7CD90240FB21F93F3B
:104230007370032E8A19A33B000040543163621A45
:1042400061B4D03DFB21394183C8C96D305FE43F83
:104250000000E03F24690000A068000082680000C0
:10426000182D4454FB21F93D3326A611460B113C71
:104270002DE9FF4D21F0004807460C46B8F1795F63
:1042800008DA05F0A1F9002801BF0020324904B086
:10429000BDE8F08D3A4623461046194605F058FA17
:1042A000054602462D480E460B460621784400F08E
:1042B0005DF82A46334605F04BFADDE902238246D3
:1042C0008B463846214605F043FA04460F465246CF
:1042D0005B462846314605F03BFA22463B4605F050
:1042E00005FD07468A464FF0FF322846314605F065
:1042F0006FFF1B4A90450ADA3A46534605F0F6FC32
:1043000004B00022BDE8F04D134B05F0FDBB154A8B
:104310004245A8BFA8F500154FF00004B8BF124DE4
:1043200022462B4605F0E2FC0646884622462B46EE
:104330000020094905F0DAFC04460D463A4653468A
:104340003046414605F0D2FC04B022462B46BDE87B
:10435000F04D05F0D9BB00000000F03F28660000DA
:104360003333D33F0000E93F0000D23F2DE9F04155
:104370004F1E00EBC7010446D1E9000115461E4659
:1043800037F006020DD02A46334605F0E1F97F1ECC
:1043900004EBC703D3E9002304F0C6FE37F006029E
:1043A000F1D1022F25D0042F13D0062F18BFBDE85E
:1043B000F0812A46334605F0CBF9D4E90A2304F00C
:1043C000B3FE2A46334605F0C3F9D4E9082304F0C6
:1043D000ABFE2A46334605F0BBF9D4E9062304F0C8
:1043E000A3FE2A46334605F0B3F9D4E9042304F0CA
:1043F0009BFE2A46334605F0ABF9D4E9022304F0CC
:1044000093FE2A46334605F0A3F9D4E90023BDE81C
:10441000F04104F089BE00002DE9FF4D054621F072
:10442000004084B00C46B0F1795F0BDA2846FFF704
:1044300036FD042808BF00F0C1F9284608B021461F
:10444000BDE8F08D2A460B46104605F081F9064678
:104450000F462A46234605F07BF9804626488A46C1
:1044600032463B4605217844FFF780FF834610988B
:10447000029160B3214A224B4046514605F068F94B
:10448000CDE900015A4640465146029B05F060F9CD
:1044900082468846DDE906014FF0FF3205F098FEBE
:1044A0005246434605F022FC32463B4605F050F9A1
:1044B000DDE9062305F01AFCDDE9002305F016FC12
:1044C00008B02A462346BDE8F04D05F01DBB0B465B
:1044D0005A463046394605F03BF9084A084B04F085
:1044E00023FE4246534605F033F908B02A462346D8
:1044F000BDE8F04D04F018BE9665000049555555CD
:104500005555C5BF2DE9F04D04468CB0904821F0BB
:104510000047164698460D460991874206DA20461E
:10452000294605F051F8002800F0AE808948B842CD
:104530001CDC09980028BCBF85F0004588F00048C5
:10454000854A864B2046294605F0DEFA04460D468C
:10455000324643468248834905F0C8FB22462B4633
:1045600004F0E2FD002604460D46B04622462B46E6
:104570001046194605F0ECF88B46824602460B467B
:1045800005F0E6F80246089077480B4600910621B0
:104590007844FFF7EBFECDE9031074480621784418
:1045A000009B089AFFF7E2FE52465B4605F0D0F802
:1045B000CDE9051052465B462046294605F0C8F86D
:1045C00007910090DDE90310DDE9053204F0ACFD50
:1045D000079B009A05F0BCF83246434604F0A4FD60
:1045E00052465B4605F0B4F83246434604F09CFD63
:1045F00080460E465E4A5F4B0799009805F0A8F882
:104600004246334604F090FD82468B4622462B46B6
:1046100004F08AFD80464F480E46B84214985BDC91
:1046200005F02FF8074642463346059104F07CFD1D
:10463000CDE90110424633461046194605F088F888
:10464000DDE9013204F02CFE52465B4605F04EFBDC
:1046500022462B4605F058FA012205F0B9FD3A46EC
:10466000059B05F051FA04460D460998022101EA1E
:10467000A070C0F1010005F004F80CB022462B46F2
:10468000BDE8F04D05F064B81498401C3843204351
:104690000BD01498012812D00CB022462B46BDE84E
:1046A000F04D0020344904F0FBBD0CB025F0004370
:1046B0002246BDE8F04D0020304904F0F1BD20460F
:1046C0002946FFF7ECFB042808BF00F077F82046E6
:1046D0000CB02946BDE8F08D012802BF40460CB061
:1046E000BDE8F08D00270B463A462046294605F0E6
:1046F0000BFA52465B4605F007FA04460D46424661
:10470000334600201C4904F0CBFD83463A468846D8
:104710003346104605F01CF80022184B04F004FD47
:1047200006468A4622462B463846414605F010F892
:104730003246534604F0F8FC5A46434605F008F862
:104740000CB03A464346BDE8F04D04F0EDBC000025
:104750000000303E2894E53F182D4454FB21E93FEA
:10476000075C143326A6813C94640000B664000004
:10477000635555555555D53F0000F0BF0000F03F3B
:10478000002213461046014904F08ABD0000F03FA4
:10479000012205F01DBD04F0C7BC002213461046DF
:1047A000114604F07DBD40F2013200204FF0E0419F
:1047B00005F00EBD02460B4604F0CABF024A0020B7
:1047C000110705F005BD000001FDFFFF2DE9F04DCB
:1047D0000546C94821F0004686B00C4601F0004766
:1047E000864235D3C54BB34226D8C548864215D339
:1047F000C6F31300284306D006B028462146BDE87C
:10480000F04DFFF7C5BF27B906B028462146BDE8E1
:10481000F08D06B00020BB49BDE8F08DBA4A2846AD
:10482000214605F03BF907D20220FBF77AFF06B0DC
:10483000BDE8F04DFFF7B7BF57B1B44AB44B2846B7
:10484000214604F071FC0022134604F045FFE0D33A
:10485000B048864240F2CC80AF48DFF8C0A2DFF813
:10486000C0B2B04217D952465B46284621464FB1E6
:1048700004F05AFC82468B46AA4FDFF8AC824FF018
:10488000FF362FE005F032FA82468B46A54FDFF85F
:104890009C82012626E0A64AA64B2846214604F023
:1048A00057FF002F4FF0000214BFA34BA34B04F09F
:1048B0003BFC04F089FE064604F0E3FE074688460A
:1048C00052465B4604F044FF2A46234605F01CF995
:1048D00082468B46934A954B3846414604F038FF52
:1048E000074688463A4643465046594605F0FEF983
:1048F00005460C4652465B4605F006F93A464346E5
:1049000005F0F4F9CDE902014FF0FF3228462146C7
:1049100005F05EFC82468B462A46234604F018FFCB
:1049200007460246864888460B4605217844FFF72D
:104930001DFD3A46434604F00BFF0022814B04F074
:10494000F3FB52465B46CDE9000104F001FF002273
:104950007D4B05F0D9F883468A462A46234604F063
:10496000F7FE0022794B05F0CFF8CDE90401DDE92F
:1049700000015A46534605F0B9F9DDE9042304F075
:104980008FFC3A46434604F0E3FEE6B3DDE902233A
:1049900005F0ACF92A46234604F0DAFEDDE90223ED
:1049A00005F0A4F93A46434605F0A0F9DFF88CA1DA
:1049B00007468846B6F1FF3F39D0012E48D016F1A0
:1049C000020F01DD382E6CDD0B463A4628462146A3
:1049D00005F09AF85B4C0022234605F095F806B0E6
:1049E00001EB06512346BDE8F04D002205F07EB9EB
:1049F0005748B04298BF002686D928462146FFF77F
:104A00004EFA042800E003E008BFFFF7D7FEFBE6FC
:104A10002A46234604F09CFE3A46434605F066F9D2
:104A200006B02A462346BDE8F04D05F06DB80B46AA
:104A30003A462846214605F059F94FF0FF3205F075
:104A4000C7FB06B05346BDE8F04D002205F04EB955
:104A50000022404B2846214604F03EFE11D200229F
:104A600053462846214604F05FFB3A46434605F08C
:104A70004BF806B00022BDE8F04D4FF0404304F083
:104A800067BE3A4643462846214605F02FF90122E3
:104A900005F09EFB06B00022BDE8F04D294B04F066
:104AA00043BB4FF0000A142E11DA4FF40010F0400F
:104AB000C0F17F6B0B460BF1405B3A46284621461E
:104AC00005F022F852465B4605F01EF80FE040F272
:104AD000FF30801B03055246384604F025FB2A466A
:104AE000234605F011F80022164B04F01DFB06B01A
:104AF00001EB0651BDE8F08D7A684340422E8640B6
:104B00000000F07F0000F0BFEF39FAFE59F3F8C261
:104B10001F6EA501422ED63FB2A2F03F0000E0FE7C
:104B2000422EE63F763C7935EF39EABDEF39EA3D72
:104B3000FE822B654715F73F0000E0BF0000E03F15
:104B4000D85F00000000F03F00000840000018405F
:104B50000000903C0000D0BF10B50446D1E9000130
:104B600000F002F8206010BDF8B504460D466A4614
:104B700001F0C0FE00987E30009000281EDC00226C
:104B800013462046294604F0E3FC17D0002140F6E6
:104B900008004FF0000006462046294604F092FA2D
:104BA000044640F6080006EA00014FF0000034F029
:104BB000004004BF0220FBF7B4FD29E00098FF2865
:104BC00028DB002108464FF0000000F440060022D8
:104BD00013462046294604F061FF8CBF00250125BD
:104BE0000220FBF79EFD4FF0FF4446B1002D0CBFA5
:104BF0004FF400004FF48000B04218BF084C04216D
:104C000008464FF00000002D04BF84F00040F8BDBE
:104C10002046F8BD20462946BDE8F84004F052BAC7
:104C2000FFFF7F7F10B504460A46D4E9000319460A
:104C300001F05EFFC4E9000110BD30380A2801D23E
:104C400001207047002070472DE9F04D0546DFF840
:104C5000388221F000408D4F82B00C46404520DB69
:104C6000A0EB080129430BD08949884201DC10D10F
:104C70007DB102B028462146BDE8F04DFFF788BD62
:104C8000002CC7BF002001468248394602B0BDE86B
:104C9000F08D0120FBF745FD02B0BDE8F04DFFF7B8
:104CA0007CBD7D49884244DA7C498142A1BF794874
:104CB0007B4902B0BDE8F08D2A46234610461946CE
:104CC00004F046FD8346024676480E460B46062112
:104CD0007844FFF74BFB5A46334604F039FD07464C
:104CE00071488A465A46334604217844FFF73EFB12
:104CF0005A46334604F02CFD0022434604F014FAD1
:104D000002460B463846514604F0CAFA2A46234664
:104D100004F01EFD654A664B04F0F6FE2A46234663
:104D200004F0F2FE02B05B4ABDE8F04D5C4B04F0CB
:104D3000EBBE002C4FF000024BDA464643462846B5
:104D4000214604F0F1F94FF0FF3205F041FA044634
:104D5000024658480D460B4606217844FFF706FBED
:104D600022462B4604F0F4FC804653488A462246ED
:104D70002B4604217844FFF7F9FA22462B4604F02B
:104D8000E7FC0022334604F0CFF906468B46204666
:104D9000294603F0D1FB04460D4632465B464046A9
:104DA000514604F07DFA22462B4604F0D1FC3F4ADE
:104DB0003F4B04F09BFF22462B4604F0B5F901223D
:104DC00005F006FA02B03B46BDE8F04D314A04F06A
:104DD0009BBE2D4B2846214604F096FE4FF0FF3235
:104DE00005F0F6F905460E4603F0A6FB00270C4633
:104DF00080463A460B4604F097F982468B463A467F
:104E000023461046194604F0A3FC2A46334604F014
:104E10007BFE52465B4604F043FA824627488B46A7
:104E20002A46334606217844FFF7A0FA2A4633463D
:104E300004F08EFCCDE9000121482A4633460421C6
:104E40007844FFF793FA2A46334604F081FC0022A7
:104E50000D4B04F069F902460B46DDE9000104F050
:104E60001FFA4246234604F073FC52465B4604F0A8
:104E70005BF93A46234604F057F902B00122BDE837
:104E8000F04D05F0A5B900000000F03FFB210940FE
:104E90000000F07F182D44540000E03F0000603C0B
:104EA000FB21F93FA4590000BA590000075C1433F4
:104EB00026A6913C1A590000305900004E580000B7
:104EC0006458000004F030B92DE9F04D8D4F21F009
:104ED000004A86B005460C46BA452ADBAAEB070015
:104EE00028430AD08848824501DC1AD1CDB106B0EA
:104EF0002846BDE8F04DFFF74BBC844A844B28465A
:104F000004F026FC07460E46824A834B284621467B
:104F100004F01EFC06B03A463346BDE8F04D04F0FE
:104F200003B90120FBF7FDFB06B0BDE8F04DFFF72C
:104F300034BC7A48824542DABAF1795F0BDA284606
:104F4000FEF7ADFF042808BFFFF738FC284606B07F
:104F50002146BDE8F08D2A460B46104604F0F8FBCA
:104F6000834602466E480E460B4606217844FFF7FC
:104F7000FDF95A46334604F0EBFB804669488A4601
:104F80005A46334604217844FFF7F0F95A4633462F
:104F900004F0DEFB00223B4604F0C6F802460B4656
:104FA0004046514604F07CF92A46234604F0D0FBE3
:104FB00006B02A462346BDE8F04D04F0B5B82846B1
:104FC00024F0004100223D463B4604F09DFD4FF099
:104FD000FF3205F0FDF80646024653480F460B46E1
:104FE00006217844FFF7C2F932463B4604F0B0FB95
:104FF000CDE900014D4832463B4604217844FFF795
:10500000B5F932463B4604F0A3FB00222B4604F0E0
:105010008BF8834602913046394603F08DFA80467C
:1050200043480D46504517DCDDE900015A46029B16
:1050300004F036F942462B4604F08AFB42462B46E2
:1050400004F072F8012205F0C3F8304A304B04F046
:105050004DFE304A304B4CE04FF0000A52460B46B2
:10506000404604F061F8CDE9031052462B46104645
:10507000194604F06DFB32463B4604F045FDDDE980
:10508000033204F00DF906460F46DDE900015A46E9
:10509000029B04F005F9834600910122304639460F
:1050A00005F096F8194A1A4B04F02EFD06460F46F5
:1050B00001224046294605F08BF85A46009B04F031
:1050C00047FB32463B4604F011FE06460F460122DE
:1050D0005046294605F07CF80E4DDFF858802A46E8
:1050E000434604F011FD32463B4604F00DFD2A46CE
:1050F000434604F009FD002CD8BF81F0004106B002
:10510000BDE8F08D0000F03F0000F07F075C143335
:1051100026A6913C182D4454FB21F93F0000E03FA6
:10512000585700006E570000E2560000F856000085
:105130003333EF3FFB21E93F2DE9F84F04460D469D
:1051400021F0004000917349814211DC724988428C
:1051500001DC06D12CB120462946BDE8F84FFFF707
:1051600017BB6E48002DCCBF6D496E49BDE8F88F66
:105170006D49814211DD6D498142D8BF4FF0FF3644
:105180006DDD20462946FEF78AFE042808BFFFF79A
:1051900015FB20462946BDE8F88F6549654F25F087
:1051A0000045814233DD6449814219DD00263246E3
:1051B0004FF080432046294603F0B6FF80468A46DA
:1051C00001222046294605F003F800223B4604F060
:1051D0008DFD4246534604F063F804460D463EE01A
:1051E00001260022BA463B462046294603F09CFF92
:1051F00080460F46002253462046294604F076FD9D
:1052000042463B4604F04CF804460D4627E04B4925
:1052100081421BDDDFF828A10226002253462046EA
:10522000294604F095FA00223B4603F07DFF8046B4
:105230000F46002253462046294604F057FD4246B9
:105240003B4604F02DF804460D4608E003262246AE
:105250002B4600203B4904F023F804460D46224625
:105260002B461046194604F073FA8B4682460246D6
:105270000B4604F06DFA07460246334888460B4653
:1052800006217844FFF772F852465B4604F060FA54
:1052900082462E488B463A46434605217844FFF71E
:1052A00065F83A46434604F053FA02460B46002E90
:1052B000504659460CDA03F037FF22462B4604F0DD
:1052C00047FA01B022462B46BDE8F04F04F01CBC63
:1052D00003F02AFF22462B4604F03AFA1C4A7A448D
:1052E00002EBC603D3E9002304F000FD22462B465F
:1052F00004F0FCFC174A7A4402EBC603D3E900230E
:1053000004F002FC009A002AB8BF81F00041BDE819
:10531000F88F0000000010440000F07F182D445466
:10532000FB21F93FFB21F9BF0000DC3F0000203EDC
:105330000000F33F0000F03F0000E63F0080034024
:105340000000F83F0000F0BFFA540000B85400001D
:10535000565400001E5400002DE9F04D9446CCF147
:10536000000423F000464CEA0404524F46EAD47489
:105370009A46884621F00042BC4206D8454240EA9F
:10538000050442EAD474BC4204D9BDE8F04D62463B
:10539000FFF701BAAAF14055A5F17F6555EA0C0463
:1053A0000BD0022404EAAA74434DDFF810E144EA6A
:1053B000D87452EA000B04D00CE0BDE8F04DFFF7C2
:1053C000BBBE002C14BF012CBDE8F08D022C30D0E8
:1053D000032C32D056EA0C0B0AD0BE4220D1BA427E
:1053E00009D126F0804622F080423346114617E06C
:1053F00000291ADB25E0DFF8C8B0FB44002C04BF0D
:10540000DBE90001BDE8F08D012C02BFDBE9000102
:1054100081F00041BDE8F08D022C0AD0032C0CD0A5
:10542000BA4212D1B8F1000F0BDA23482549BDE882
:10543000F08D28462449BDE8F08D28467146BDE828
:10544000F08D1D482149BDE8F08D921B12153C2AB4
:10545000C4BF19481D490EDCBAF1000FBEBF12F1DE
:105460003C0F0020014606DB624603F019FF21F0E5
:105470000041FFF761FE002C08BFBDE8F08D012C54
:1054800004BF81F00041BDE8F08D114A114B022CA0
:1054900007D004F02BFC2A46BDE8F04D0A4B04F07F
:1054A00025BC04F023FC2A46BDE8F04D064B04F071
:1054B0002BBB00000000F07F182D4454FB2109C0D5
:1054C00032550000FB21F9BFFB210940FB21F93FC8
:1054D000075C143326A6A13C2DE9F04105468068FF
:1054E0004FF0190800F01F010839182977D2DFE8BA
:1054F00001F020364B4B4B4B4B4B20364B4B4B4B21
:105500004B4B999999998D990C170021012001F025
:105510004EFE041E69D0D5E90401C4E9020171E020
:105520000021084601F043FE041E5ED02869A060F9
:1055300068E0002101F03BFE041E56D02869A060FF
:10554000287AC00601D5A8692061284601F05AFED4
:10555000A8681C2872D1284601F054FE5EE00021A4
:1055600001F025FE041E40D02869A060287AC006FC
:1055700001D5A8696061284601F044FE284602F082
:1055800013FD206160B359E010F0180F02D000F055
:10559000070700E00027002101F009FE041E24D0C7
:1055A0002869A060287AC00603D504EB8701A869A2
:1055B0000861284601F026FEA8681C281FD1002695
:1055C00016E0284601F01EFE284601F035F804EBEF
:1055D0008601086120B1A8681B280BD107E021E0F3
:1055E000FFE7204603F0DCFA0020BDE8F081761CDE
:1055F000BE42E6DB1D2802D17F1EBE4202D0C5F8A6
:1056000008801BE0284601F0FDFD17E0284601F068
:10561000F9FD284601F0A6FA041EE6D0A8681D2868
:10562000F0D0ECE70021084601F0C1FD041EDCD0FB
:1056300003490020C5F80880C4E902012046D4E7E8
:105640000000F87FF0B52B490022002841F8012F17
:105650008A808A712ED02749491C0A2801D82F3008
:1056600027E00B2824D00C2825D00D2825D02F2367
:105670000E2824D0112824D028240F2823D029250F
:10568000102822D05E223126322712281FD013285C
:1056900024D03327142821D0152818D01E2820D034
:1056A0001C2820D01D2820D0162820D03F2000E024
:1056B0002B200870F0BD2D20FBE72A20F9E70B70A6
:1056C000F0BD2E20F5E70C70F0BD0D70F0BD0A7036
:1056D0004C708E70CB700F714D71F0BD0A704F70B1
:1056E000F0BD2320E5E77820E3E77920E1E73D20DE
:1056F000DFE70000040000202DE9F04D074601F02F
:1057000000484848002581EA080482B0844205DB4D
:1057100002B03846BDE8F04DFFF73AB857EA04004A
:1057200002BF384602B0BDE8F08DB4F5801F0CDA38
:105730003D4B2A463846214604F00AF805463B48C8
:10574000A0FB011040083A4905E03A4981FB0410EA
:105750003949A0EBE07046182A46334610461946F0
:1057600003F0F6FF3A46234603F09AFD2A463346F5
:1057700003F0EEFF314A324B03F0D6FC82468B46F3
:1057800002460B462F48304903F08AFDCDE900015F
:105790002E4A2F4B5046594603F0C6FCDDE9002344
:1057A00003F0C2FC02460B462A482B4903F078FD61
:1057B0002A4A2B4B03F0B8FC2A46334603F0C8FFB5
:1057C00000254E1C2A4633461046314603F0C0FFE2
:1057D00002460B463846214603F062FD04460F465A
:1057E00001222846314604F0F3FC22463B4603F0F2
:1057F0009BFC82468B462A4633462046394604F0B7
:1058000075FA52465B4603F04BFD2A46334603F0D9
:105810009FFF2A46334603F087FC02B041EA0801A5
:10582000BDE8F08D0000F07F00005043ABAAAAAAAB
:1058300093787F295655555593789F2AF1155FF136
:10584000155FE13F34C83225DE91E6BF0FEAA00EB6
:10585000EAA0F63F6EDBB66DDBB6F93FB76DDBB69F
:105860006DDBD63F2DE9F041C1F30A52A2F2FF36BB
:105870002F4A304B0D460446142E2FDA002E12DA32
:1058800003F052FC0022134604F008F94CD2002D1C
:10589000BCBF4FF00045002446DB55EA040018BFAA
:1058A000254D19D140E0DFF894C02CFA06F705EA3F
:1058B000070C5CEA040C08BFBDE8F08103F034FC7F
:1058C0000022134604F0EAF82ED2002D03DD4FF437
:1058D0008010F0400544BD43002425E0332EC8BFAE
:1058E000BDE8F081A6F1140C4FF0FF3727FA0CF752
:1058F0003C4208BFBDE8F08104F006F900221346DF
:1059000004F0CCF810D2002D0DDD142E08BF6D1C54
:1059100009D0C6F13400012101FA00F02044A04270
:1059200038BF6D1C0446BC4329462046BDE8F081C3
:105930009C7500883CE4377E0000F03FFFFF0F00BD
:105940002DE9F041F448FDF7FFFAF44E0022012161
:105950003046FCF7F6FD012202213046FCF7F1FD4E
:10596000012204213046FCF7ECFD012208213046DB
:10597000FCF7E7FD10213046FCF7D6FD0025E84C8A
:105980000127A0B9656000E0276010213046FCF7D0
:10599000CBFD0028F8D025606068011F602902D285
:1059A0000220BDE8F081642801DD0F20F9E7202105
:1059B0003046FCF7B9FD98B9656000E0276020210A
:1059C0003046FCF7B1FD0028F8D025606068011F63
:1059D000602901D20320E4E7642801DD1020E0E71C
:1059E00040213046FCF7A0FD98B9656000E02760D3
:1059F00040213046FCF798FD0028F8D0256060680B
:105A0000011F602901D20420CBE7642801DD1320A7
:105A1000C7E780213046FCF787FD98B9656000E054
:105A2000276080213046FCF77FFD0028F8D02560F4
:105A30006068011F602901D20520B2E7642801DDFA
:105A40001420AEE7012211463046FCF77AFD002211
:105A500002213046FCF775FD012204213046FCF797
:105A600070FD012208213046FCF76BFD1021304605
:105A7000FCF75AFD98B9656000E0276010213046B8
:105A8000FCF752FD0028F8D025606068011F6029EE
:105A900001D2062085E7642801DD122081E720215C
:105AA0003046FCF741FD98B9656000E02760202191
:105AB0003046FCF739FD0028F8D025606068011FEA
:105AC000602901D207206CE7642801DD152068E712
:105AD00040213046FCF728FD98B9656000E027605A
