:020000040800F2
:10000000C8080020C90100087B0E00083B0D00084D
:10001000790E0008CF020008BF0F000800000000A2
:10002000000000000000000000000000590F000860
:10003000D1020008000000007D0E00085B0F0008E0
:10004000E3010008E3010008E3010008E301000800
:10005000E3010008E3010008E3010008E3010008F0
:10006000E3010008E3010008E3010008E3010008E0
:10007000E3010008E3010008E3010008E3010008D0
:10008000E3010008E3010008E3010008E3010008C0
:10009000E3010008E3010008E3010008E3010008B0
:1000A000E3010008E3010008E3010008E3010008A0
:1000B000E3010008E3010008E3010008E301000890
:1000C000E3010008E3010008E3010008E301000880
:1000D000E3010008E3010008E3010008E301000870
:1000E000E3010008E3010008E301000800F002F862
:1000F00000F05AF80AA090E8000C82448344AAF168
:100100000107DA4501D100F04FF8AFF2090EBAE865
:100110000F0013F0010F18BFFB1A43F0010318473B
:10012000A00F0000C00F00000A444FF0000C10F8B0
:10013000013B13F0070408BF10F8014B1D1108BF65
:1001400010F8015B641E05D010F8016B641E01F805
:10015000016BF9D113F0080F1EBF10F8014BAD1C55
:100160000C1B09D16D1E58BF01F801CBFAD505E073
:1001700014F8016B01F8016B6D1EF9D59142D6D3CD
:10018000704700000023002400250026103A28BFF5
:1001900078C1FBD8520728BF30C148BF0B607047F9
:1001A0001FB51FBD10B510BD00F058F81146FFF780
:1001B000F7FF00F051FF00F076F803B4FFF7F2FF0D
:1001C00003BC00F07DF8000009488047094800475B
:1001D000FEE7FEE7FEE7FEE7FEE7FEE7FEE7FEE7F7
:1001E000FEE7FEE704480549054A064B7047000054
:1001F000BD0F0008ED000008C8020020C80800205C
:10020000C8040020C80400204FF0000200B51346C7
:1002100094469646203922BFA0E80C50A0E80C5026
:10022000B1F12001BFF4F7AF090728BFA0E80C50D7
:1002300048BF0CC05DF804EB890028BF40F8042BD0
:1002400008BF704748BF20F8022B11F0804F18BF3D
:1002500000F8012B7047704770477047754600F0F3
:100260002BF8AE4605006946534620F00700854648
:1002700018B020B5FFF7B6FFBDE820404FF00006EC
:100280004FF000074FF000084FF0000B21F007017E
:10029000AC46ACE8C009ACE8C009ACE8C009ACE8C1
:1002A000C0098D46704710B50446AFF30080204664
:1002B000BDE81040FFF781BF00487047640200208E
:1002C00001491820ABBEFEE7260002007047FEE79A
:1002D000704772B6FEE700002DE9F84FDFF8B891DD
:1002E0000024A9F1040B23460F2709F1040AABF1FE
:1002F000040EC9E00125A5402A40AA427DD1674EDF
:10030000D1F804C0ACEB0608B44532D014DCBCF123
:10031000030F3AD009DCBCF1000F2AD0BCF1010F69
:100320001CD0BCF1020F31D11DE0BCF1110F17D070
:10033000BCF1120F2AD119E0B8F5881F19D006DCDC
:10034000B8F5803F15D0B8F5801F1FD111E0B8F582
:10035000001F0ED0B8F5041F18D10AE0CB6815E0D5
:10036000CB681B1D12E0CB6808330FE0CB680C3361
:100370000CE08B682BB1012B4FF0080303D04561D3
:1003800004E0042302E0056100E00023FF2A01D815
:10039000064601E000F104064FEA840501D9A5F103
:1003A0002005D6F8008007FA05FC28EA0C0803FAB5
:1003B00005F548EA0508C6F800804D68ED0062D5ED
:1003C000374DAE6946F00106AE61AD6924F0030613
:1003D00005F001050095334D06EB050CDCF80850DF
:1003E000A607360F07FA06F825EA0805DFF8B880F1
:1003F000404503D14FF0000817E044E0DFF8AC803F
:10040000404502D14FF001080FE0DFF8A4804045DD
:1004100002D14FF0020808E0DFF89880404502D191
:100420004FF0030801E04FF0040808FA06F848EA24
:100430000508CCF808804D68D9F80060ED024D46FB
:1004400001D5164300E096432E604D68DAF800604F
:10045000AD02554601D5164300E096432E604D6827
:10046000DBF80060AD035D4601D5164300E096431E
:100470002E604D68DEF80060ED03754601D5164329
:1004800000E096432E60641C0D682A46E5407FF428
:1004900031AFBDE8F88F00000804014000001110E2
:1004A000001002400000014000080140000C014023
:1004B00000100140001401400AB1016170470904B5
:1004C000FBE700000148806870470000FC01002045
:1004D000024881680278114481607047FC01002065
:1004E000074810B5016841F010010160032000F0D9
:1004F00067F80F2000F006F800F024F8002010BD87
:100500000020024070B50D4D04464FF47A712878F2
:10051000B1FBF0F00A490968B1FBF0F000F0F9FB1B
:1005200048B9102C07D200222146501E00F028F8AE
:1005300000206C6070BD012070BD0000FC01002037
:10054000080200200C4808B5816941F00101816171
:10055000816901F001010091C16941F08051C161DF
:10056000C06900F0805000900448416821F0E061CB
:1005700041F08061416008BD001002400000014070
:10058000F0B40E4B1B680C46C3F30223C3F10705FE
:10059000042D00D90425191D072901D2002300E0EC
:1005A000DB1E012606FA05F1491E214099409E40B6
:1005B000761E16403143F0BC00F002BD0CED00E0A9
:1005C000064900F0070208684FF6FF03184040EAAA
:1005D0000220034A10430860704700000CED00E061
:1005E0000000FA052DE9F0470F46050061D0434EA3
:1005F000306800F00700B84209D2306820F00700E8
:1006000038433060306800F00700B84251D12868A4
:100610003B4C810712D5400703D5606840F4E06089
:1006200060602878000703D5606840F4605060601F
:100630006068A96820F0F000084360602878C0076F
:1006400028D06868012810D02168022810D08907B6
:1006500000292EDA616821F0030101436160FFF790
:1006600031FF804641F288390DE021688903EFE7C8
:100670008901EDE7FFF726FFA0EB0801494502D904
:100680000320BDE8F0876068696800F00C00B0EBFB
:10069000810FEFD1306800F00700B8420BD9306805
:1006A00020F0070038433060306800F00700B8429F
:1006B00001D00120E5E72878400705D56068E968A2
:1006C00020F4E060084360602878000706D5606881
:1006D000296920F4605040EAC100606000F018F819
:1006E0006168084AC1F30311515CC84006490860BB
:1006F00006480068FFF706FF0020C2E7002002401E
:1007000000100240AE100008080200200002002085
:100710000E4A51680E4801F00C03042B11D0082B2F
:100720000FD10C48C1F38343C903C05C0AD551689B
:10073000084AC1F34041921E515C054A5043B0FB48
:10074000F1F0704704494843704700000010024030
:1007500000127A009E10000800093D002DE9F84FB4
:10076000040070D02078C04DC00749D06868C0F33D
:100770008100012807D06868C0F38100022809D1F0
:100780006868C00306D52868800339D560680028EA
:10079000E7D035E06068B0F5803F0BD010B1B0F520
:1007A000A02F11D0286820F480302860286820F419
:1007B000802002E0286840F480302860606890B1B2
:1007C000FFF780FE06460AE0286840F48020286093
:1007D000F0E700BFFFF776FE801B642873D8286817
:1007E0008003F7D50CE0FFF76DFE064605E000BF7D
:1007F000FFF768FE801B6428F0D828688003F7D4D0
:1008000020789A4E80074FF001094FF0000839D543
:10081000686810F00C0F07D06868C0F381000228E8
:1008200009D16868C00306D42868800714D52069F8
:10083000012808D110E02069B0B1C6F80090FFF798
:1008400041FE074605E00AE1FFF73CFEC01B022817
:10085000C4D828688007F7D52868616920F0F800B7
:1008600040EAC10028600DE0C6F80080FFF72AFECC
:10087000074604E0FFF726FEC01B022823D828689D
:100880008007F7D4207800072CD57948A169D9B121
:10089000C0F80090FFF716FE074604E0FFF712FECF
:1008A000C01B02280FD8686A8007F7D571484FF43B
:1008B000FA510068B0FBF1F0009000BF0098411EB3
:1008C0000091FAD20EE080E0C0F80080FFF7FAFD58
:1008D000074604E0FFF7F6FDC01B022875D8686ADA
:1008E0008007F7D42078400760D5E8690027C0006A
:1008F00008D4E86940F08050E861E869012700F019
:10090000805000905C480168C90513D40168834693
:1009100041F480710160FFF7D5FD824606E000BF1B
:10092000FFF7D0FDA0EB0A0064284ED8DBF80000EA
:10093000C005F5D5E06801280AD008B1052813D014
:10094000286A20F001002862286A20F0040002E0F2
:10095000286A40F001002862E06841F2883B98B1C3
:10096000FFF7B0FD82460BE0286A40F004002862E1
:10097000EEE700BFFFF7A6FDA0EB0A0159455AD8E4
:10098000286A8007F6D50CE0FFF79CFD824605E05B
:10099000FFF798FDA0EB0A0159454CD8286A80075B
:1009A000F6D41FB1E86920F08050E861E06988B3AF
:1009B0006968C1F38101022944D00228C6F8608029
:1009C00004D0FFF77FFD044638E034E0FFF77AFDFE
:1009D000074604E0FFF776FDC01B02282BD82868E5
:1009E0008001F7D4206AB0F5803F05D16868A1681E
:1009F00020F4003008436860D4E9080108436968BE
:100A000021F4741108436860C6F86090FFF75AFD3E
:100A1000044606E025E000BFFFF754FD001B022856
:100A200009D828688001F7D51BE000BFFFF74AFD11
:100A3000001B022802D90320BDE8F88F2868800136
:100A4000F4D40EE00128F7D06868226A00F48031FF
:100A5000914204D1616A00F47010884201D00120F3
:100A6000EAE70020E8E700000010024000004242F0
:100A700080044242080200200070004070B504006B
:100A800009D0606A002540B125616561A56294F8CE
:100A9000510040B10CE0012070BD6068B0F5827F6C
:100AA000F4D0E561F2E784F85050204600F040F8B9
:100AB000022084F851002068016821F040010160A3
:100AC000A088218900F4827001F404410843A189BF
:100AD00001F400610843217C01F002010843217DFB
:100AE00001F001010843218B01F400710843217FCB
:100AF00001F03801084394F8201001F08001084308
:100B0000218D01F40051084321680860A069042187
:100B100001EA1040216848602068C16921F4006141
:100B2000C1616565012084F85100002070BD00009E
:100B300030B585B0002400940194029403940068B9
:100B40001549884225D11548C16941F48041C161E8
:100B5000C16901F480410491816941F0080181611A
:100B600080690F4D00F0080004904FF42040009081
:100B7000022001900320039069462846FFF7ACFB52
:100B80004FF48040CDE90004694628460294FFF7FF
:100B9000A3FB05B030BD000000380040001002404B
:100BA000000C01402DE9F84F044690F85000002653
:100BB000984615468A4601280CD0012784F85070C3
:100BC000FFF780FC814694F85100B346012804D019
:100BD00002269AE00220BDE8F88FBAF1000F6FD02C
:100BE000002D6DD0032084F85100C4F854B0C4F82F
:100BF00030A0A586E586C4F838B0A4F83CB0A4F8C7
:100C00003EB0C4F844B0C4F840B0A068B0F5004F9E
:100C100009D12068016821F0400101602068016865
:100C200041F48041016020680168490603D40168ED
:100C300041F040010160E068B0F5006F606803D0EA
:100C400058B3012D29D049E008B1012D1FD1206BE7
:100C500021680088C86006E020688168890709D596
:100C6000216B0988C160206B801C2063E08E401ED0
:100C7000E0860CE0FFF726FCA0EB0901414503D319
:100C8000B8F1FF3F03D006E0B8F1000F03D0E08ECB
:100C90000028E1D125E0032635E0206B21680078AB
:100CA000087306E02068816889070AD5216B0978F6
:100CB0000173206B401C2063E08E401EE0860DE037
:100CC0001FE0FFF7FFFBA0EB0901414503D3B8F19B
:100CD000FF3F03D0DFE7B8F1000FDCD0E08E002843
:100CE000E0D14A464146204600F0C9F808B120202C
:100CF0006065A06818B92068C16880680090606D60
:100D000008B1012601E084F8517084F850B03046F3
:100D100061E710B5401EB0F1807F01D3012010BD06
:100D20004FF0E02460610F21601700F049F90020C6
:100D3000A06107202061002010BDFEE773B508B157
:100D4000012200E000220C4C4FF480612068FFF784
:100D5000B3FB4FF48055002229462068FFF7ACFB17
:100D60006423012201A90548FFF71CFF012229463F
:100D70002068FFF7A1FB7CBD000000200C020020D2
:100D80002DE9F04186B00024274800940194029494
:100D90000394816941F010018161816901F01001C2
:100DA0000491816941F020018161816901F0200194
:100DB0000491816941F004018161816901F00401BC
:100DC0000491816941F0080181618069174F00F049
:100DD00008000490002202213846FFF76DFBDFF87F
:100DE000508000224FF4B0514046FFF765FB0122CE
:100DF000D1024046FFF760FB022001250326CDE922
:100E00000005CDE9024669463846FFF765FA4FF41A
:100E1000F050CDE90005CDE9024669464046FFF7AE
:100E20005BFA06B0BDE8F081001002400008014006
:100E3000000C01400F4810B50D4901604FF482715C
:100E4000416000218160C1604FF400720161C0E91E
:100E50000512C1610162416281620A21C162FFF72C
:100E60000DFE002803D0BDE81040FFF732BA10BDD8
:100E7000003800400C020020FEE7FEE7704738B55E
:100E80000B46009204460022802100F009F8002859
:100E900004D0606D40F020006065032038BD000084
:100EA0002DE9F8431E46914688460446089DFFF703
:100EB00009FB401B351AFFF705FB0746254800686C
:100EC000C0F3CB30684338E0701C37D0FFF7FAFA34
:100ED000C01BA84203D215B1009860B32CE0206873
:100EE000416821F0E00141606068B0F5827F0BD17C
:100EF000A068B0F5004F02D0B0F5806F04D1206833
:100F0000016821F040010160A06AB0F5005F09D1DD
:100F10002068016821F4005101602068016841F4F3
:100F200000510160012084F85100002084F8500035
:100F30000320BDE8F8830025401E009020688168EA
:100F400038EA010004D000214945BDD10020F0E776
:100F50000121F9E7080200207047FFF7B9BA30B560
:100F60008FB028216846FFF74FF914210AA8FFF730
:100F70004BF901210804CDE9001000240294022558
:100F80000491CDE907504FF4E01009906846FFF74F
:100F9000E5FB08B172B6FEE70F20CDE90A054FF474
:100FA0008060CDE90C4002210AA80E94FFF71AFBDD
:100FB000002801D072B6FEE70FB030BD7047FEE7E3
:100FC0000907090E002804DB00F1E02080F8001476
:100FD000704700F00F0000F1E02080F8141D70470A
:100FE00010B50C46C0B240F080010020FFF7A6FE0D
:100FF000E0B240F04001BDE810400020FFF79EBE87
:1010000070B5144C4FF40065002229462068FFF7A4
:1010100053FA012229462068FFF74EFA21210020C9
:10102000FFF78CFEC0210020FFF788FE042100207E
:10103000FFF784FE13210020FFF780FE202100200F
:10104000FFF77CFE0C210020FFF778FEBDE8704022
:1010500000F010B800000020FFF742FAFFF77FFF12
:10106000FFF78EFEFFF7E6FEFFF7CAFF00F002F87B
:10107000FCE7000070B500210846FFF7B1FF064D00
:1010800000244FF4FC76295D0120FFF757FE641C15
:10109000B442F8DB70BD000004000020010202032E
:1010A0000405060708090A0B0C0D0E0F10100000AE
:1010B0000000000000000102030406070809000008
:1010C000E0100008000000200C02000028010008C9
:1010D000501200080C020020BC0600008401000829
:1010E0001118100C0140FF8D9F1313F30101F9F942
:1010F0000181042FF1F90909FFFF062CF9F1010123
:101100001CF9F909021FF101C1E92929071EFFFF96
:1011100071D901261D2929B9B11E1018F1F111F15B
:10112000F1F1E101E1F1515171610101C1F131319F
:10113000F1FFFF293A103060E0A0010181E1616018
:10114000C001E1E12121E0C101C1E12020FCFCE07E
:10115000E0C1E1E0C1E0E101FCFC2121E1C1E5E405
:1011600001C1E02021202701FDFD2120E0180B0115
:1011700001C06131312120C0814541294D195429D7
:101180000A1D0302030106280BF21A0B080B1B10A1
:1011900060E30313140203031903990419063918B1
:1011A0004A0110311C3E638001B4603F074954314D
:1011B0001AFE61000B2B02033EE8F8F0D090180FE6
:1011C000080812C038FF0C38E08054531FF050124A
:1011D000335F8F840507060C0E0E0C14346888D814
:1011E0007017E0101010F0E013F0F01A803D299A0B
:1011F0002909190B180820380E01C03FE0B49B0ED6
:101200000854292219011808B6EDC0C0C0E0A00199
:101210004AA101180AE1E1C1EFBB838688B01D58DD
:10122000248F9090909F8F809F9F878D98808C9E19
:1012300092929FC0C7FFB88F809090C0F08E81803F
:10124000818FB8E047290133FF0182101324F40095
:04000005080000ED02
:00000001FF
